{
  "contractName": "NFT",
  "abi": [
    {
      "inputs": [
        {
          "internalType": "address",
          "name": "marketplaceAddress",
          "type": "address"
        }
      ],
      "stateMutability": "nonpayable",
      "type": "constructor"
    },
    {
      "anonymous": false,
      "inputs": [
        {
          "indexed": true,
          "internalType": "address",
          "name": "owner",
          "type": "address"
        },
        {
          "indexed": true,
          "internalType": "address",
          "name": "approved",
          "type": "address"
        },
        {
          "indexed": true,
          "internalType": "uint256",
          "name": "tokenId",
          "type": "uint256"
        }
      ],
      "name": "Approval",
      "type": "event"
    },
    {
      "anonymous": false,
      "inputs": [
        {
          "indexed": true,
          "internalType": "address",
          "name": "owner",
          "type": "address"
        },
        {
          "indexed": true,
          "internalType": "address",
          "name": "operator",
          "type": "address"
        },
        {
          "indexed": false,
          "internalType": "bool",
          "name": "approved",
          "type": "bool"
        }
      ],
      "name": "ApprovalForAll",
      "type": "event"
    },
    {
      "anonymous": false,
      "inputs": [
        {
          "indexed": true,
          "internalType": "bytes32",
          "name": "role",
          "type": "bytes32"
        },
        {
          "indexed": true,
          "internalType": "bytes32",
          "name": "previousAdminRole",
          "type": "bytes32"
        },
        {
          "indexed": true,
          "internalType": "bytes32",
          "name": "newAdminRole",
          "type": "bytes32"
        }
      ],
      "name": "RoleAdminChanged",
      "type": "event"
    },
    {
      "anonymous": false,
      "inputs": [
        {
          "indexed": true,
          "internalType": "bytes32",
          "name": "role",
          "type": "bytes32"
        },
        {
          "indexed": true,
          "internalType": "address",
          "name": "account",
          "type": "address"
        },
        {
          "indexed": true,
          "internalType": "address",
          "name": "sender",
          "type": "address"
        }
      ],
      "name": "RoleGranted",
      "type": "event"
    },
    {
      "anonymous": false,
      "inputs": [
        {
          "indexed": true,
          "internalType": "bytes32",
          "name": "role",
          "type": "bytes32"
        },
        {
          "indexed": true,
          "internalType": "address",
          "name": "account",
          "type": "address"
        },
        {
          "indexed": true,
          "internalType": "address",
          "name": "sender",
          "type": "address"
        }
      ],
      "name": "RoleRevoked",
      "type": "event"
    },
    {
      "anonymous": false,
      "inputs": [
        {
          "indexed": true,
          "internalType": "address",
          "name": "from",
          "type": "address"
        },
        {
          "indexed": true,
          "internalType": "address",
          "name": "to",
          "type": "address"
        },
        {
          "indexed": true,
          "internalType": "uint256",
          "name": "tokenId",
          "type": "uint256"
        }
      ],
      "name": "Transfer",
      "type": "event"
    },
    {
      "inputs": [],
      "name": "DEFAULT_ADMIN_ROLE",
      "outputs": [
        {
          "internalType": "bytes32",
          "name": "",
          "type": "bytes32"
        }
      ],
      "stateMutability": "view",
      "type": "function",
      "constant": true
    },
    {
      "inputs": [],
      "name": "MINTER_ROLE",
      "outputs": [
        {
          "internalType": "bytes32",
          "name": "",
          "type": "bytes32"
        }
      ],
      "stateMutability": "view",
      "type": "function",
      "constant": true
    },
    {
      "inputs": [
        {
          "internalType": "address",
          "name": "to",
          "type": "address"
        },
        {
          "internalType": "uint256",
          "name": "tokenId",
          "type": "uint256"
        }
      ],
      "name": "approve",
      "outputs": [],
      "stateMutability": "nonpayable",
      "type": "function"
    },
    {
      "inputs": [
        {
          "internalType": "address",
          "name": "owner",
          "type": "address"
        }
      ],
      "name": "balanceOf",
      "outputs": [
        {
          "internalType": "uint256",
          "name": "",
          "type": "uint256"
        }
      ],
      "stateMutability": "view",
      "type": "function",
      "constant": true
    },
    {
      "inputs": [
        {
          "internalType": "uint256",
          "name": "tokenId",
          "type": "uint256"
        }
      ],
      "name": "getApproved",
      "outputs": [
        {
          "internalType": "address",
          "name": "",
          "type": "address"
        }
      ],
      "stateMutability": "view",
      "type": "function",
      "constant": true
    },
    {
      "inputs": [
        {
          "internalType": "bytes32",
          "name": "role",
          "type": "bytes32"
        }
      ],
      "name": "getRoleAdmin",
      "outputs": [
        {
          "internalType": "bytes32",
          "name": "",
          "type": "bytes32"
        }
      ],
      "stateMutability": "view",
      "type": "function",
      "constant": true
    },
    {
      "inputs": [
        {
          "internalType": "bytes32",
          "name": "role",
          "type": "bytes32"
        },
        {
          "internalType": "address",
          "name": "account",
          "type": "address"
        }
      ],
      "name": "grantRole",
      "outputs": [],
      "stateMutability": "nonpayable",
      "type": "function"
    },
    {
      "inputs": [
        {
          "internalType": "bytes32",
          "name": "role",
          "type": "bytes32"
        },
        {
          "internalType": "address",
          "name": "account",
          "type": "address"
        }
      ],
      "name": "hasRole",
      "outputs": [
        {
          "internalType": "bool",
          "name": "",
          "type": "bool"
        }
      ],
      "stateMutability": "view",
      "type": "function",
      "constant": true
    },
    {
      "inputs": [
        {
          "internalType": "address",
          "name": "owner",
          "type": "address"
        },
        {
          "internalType": "address",
          "name": "operator",
          "type": "address"
        }
      ],
      "name": "isApprovedForAll",
      "outputs": [
        {
          "internalType": "bool",
          "name": "",
          "type": "bool"
        }
      ],
      "stateMutability": "view",
      "type": "function",
      "constant": true
    },
    {
      "inputs": [],
      "name": "name",
      "outputs": [
        {
          "internalType": "string",
          "name": "",
          "type": "string"
        }
      ],
      "stateMutability": "view",
      "type": "function",
      "constant": true
    },
    {
      "inputs": [
        {
          "internalType": "uint256",
          "name": "tokenId",
          "type": "uint256"
        }
      ],
      "name": "ownerOf",
      "outputs": [
        {
          "internalType": "address",
          "name": "",
          "type": "address"
        }
      ],
      "stateMutability": "view",
      "type": "function",
      "constant": true
    },
    {
      "inputs": [
        {
          "internalType": "bytes32",
          "name": "role",
          "type": "bytes32"
        },
        {
          "internalType": "address",
          "name": "account",
          "type": "address"
        }
      ],
      "name": "renounceRole",
      "outputs": [],
      "stateMutability": "nonpayable",
      "type": "function"
    },
    {
      "inputs": [
        {
          "internalType": "bytes32",
          "name": "role",
          "type": "bytes32"
        },
        {
          "internalType": "address",
          "name": "account",
          "type": "address"
        }
      ],
      "name": "revokeRole",
      "outputs": [],
      "stateMutability": "nonpayable",
      "type": "function"
    },
    {
      "inputs": [
        {
          "internalType": "address",
          "name": "from",
          "type": "address"
        },
        {
          "internalType": "address",
          "name": "to",
          "type": "address"
        },
        {
          "internalType": "uint256",
          "name": "tokenId",
          "type": "uint256"
        }
      ],
      "name": "safeTransferFrom",
      "outputs": [],
      "stateMutability": "nonpayable",
      "type": "function"
    },
    {
      "inputs": [
        {
          "internalType": "address",
          "name": "from",
          "type": "address"
        },
        {
          "internalType": "address",
          "name": "to",
          "type": "address"
        },
        {
          "internalType": "uint256",
          "name": "tokenId",
          "type": "uint256"
        },
        {
          "internalType": "bytes",
          "name": "_data",
          "type": "bytes"
        }
      ],
      "name": "safeTransferFrom",
      "outputs": [],
      "stateMutability": "nonpayable",
      "type": "function"
    },
    {
      "inputs": [
        {
          "internalType": "address",
          "name": "operator",
          "type": "address"
        },
        {
          "internalType": "bool",
          "name": "approved",
          "type": "bool"
        }
      ],
      "name": "setApprovalForAll",
      "outputs": [],
      "stateMutability": "nonpayable",
      "type": "function"
    },
    {
      "inputs": [],
      "name": "symbol",
      "outputs": [
        {
          "internalType": "string",
          "name": "",
          "type": "string"
        }
      ],
      "stateMutability": "view",
      "type": "function",
      "constant": true
    },
    {
      "inputs": [
        {
          "internalType": "uint256",
          "name": "tokenId",
          "type": "uint256"
        }
      ],
      "name": "tokenURI",
      "outputs": [
        {
          "internalType": "string",
          "name": "",
          "type": "string"
        }
      ],
      "stateMutability": "view",
      "type": "function",
      "constant": true
    },
    {
      "inputs": [
        {
          "internalType": "address",
          "name": "from",
          "type": "address"
        },
        {
          "internalType": "address",
          "name": "to",
          "type": "address"
        },
        {
          "internalType": "uint256",
          "name": "tokenId",
          "type": "uint256"
        }
      ],
      "name": "transferFrom",
      "outputs": [],
      "stateMutability": "nonpayable",
      "type": "function"
    },
    {
      "inputs": [
        {
          "internalType": "bytes4",
          "name": "interfaceId",
          "type": "bytes4"
        }
      ],
      "name": "supportsInterface",
      "outputs": [
        {
          "internalType": "bool",
          "name": "",
          "type": "bool"
        }
      ],
      "stateMutability": "view",
      "type": "function",
      "constant": true
    },
    {
      "inputs": [
        {
          "internalType": "string",
          "name": "tokenURI",
          "type": "string"
        }
      ],
      "name": "createToken",
      "outputs": [
        {
          "internalType": "uint256",
          "name": "",
          "type": "uint256"
        }
      ],
      "stateMutability": "nonpayable",
      "type": "function"
    }
  ],
  "bytecode": "0x60806040523480156200001157600080fd5b5060405162003c6338038062003c638339818101604052810190620000379190620003fb565b6040518060400160405280601281526020017f46617368696f6e566572736520546f6b656e00000000000000000000000000008152506040518060400160405280600381526020017f46565400000000000000000000000000000000000000000000000000000000008152508160009080519060200190620000bb929190620002e1565b508060019080519060200190620000d4929190620002e1565b50505080600960006101000a81548173ffffffffffffffffffffffffffffffffffffffff021916908373ffffffffffffffffffffffffffffffffffffffff1602179055506200012d6000801b336200016660201b60201c565b6200015f7f9f2df0fed2c77648de5860a4cc508cd0818c85b8b8a1ab4ceeef8d981c8956a6336200016660201b60201c565b5062000492565b6200017882826200017c60201b60201c565b5050565b6200018e82826200026e60201b60201c565b6200026a5760016007600084815260200190815260200160002060000160008373ffffffffffffffffffffffffffffffffffffffff1673ffffffffffffffffffffffffffffffffffffffff16815260200190815260200160002060006101000a81548160ff0219169083151502179055506200020f620002d960201b60201c565b73ffffffffffffffffffffffffffffffffffffffff168173ffffffffffffffffffffffffffffffffffffffff16837f2f8788117e7eff1d82e926ec794901d17c78024a50270940304540a733656f0d60405160405180910390a45b5050565b60006007600084815260200190815260200160002060000160008373ffffffffffffffffffffffffffffffffffffffff1673ffffffffffffffffffffffffffffffffffffffff16815260200190815260200160002060009054906101000a900460ff16905092915050565b600033905090565b828054620002ef906200045c565b90600052602060002090601f0160209004810192826200031357600085556200035f565b82601f106200032e57805160ff19168380011785556200035f565b828001600101855582156200035f579182015b828111156200035e57825182559160200191906001019062000341565b5b5090506200036e919062000372565b5090565b5b808211156200038d57600081600090555060010162000373565b5090565b600080fd5b600073ffffffffffffffffffffffffffffffffffffffff82169050919050565b6000620003c38262000396565b9050919050565b620003d581620003b6565b8114620003e157600080fd5b50565b600081519050620003f581620003ca565b92915050565b60006020828403121562000414576200041362000391565b5b60006200042484828501620003e4565b91505092915050565b7f4e487b7100000000000000000000000000000000000000000000000000000000600052602260045260246000fd5b600060028204905060018216806200047557607f821691505b602082108114156200048c576200048b6200042d565b5b50919050565b6137c180620004a26000396000f3fe608060405234801561001057600080fd5b50600436106101375760003560e01c80636352211e116100b8578063a22cb4651161007c578063a22cb46514610372578063b88d4fde1461038e578063c87b56dd146103aa578063d5391393146103da578063d547741f146103f8578063e985e9c51461041457610137565b80636352211e146102a657806370a08231146102d657806391d148541461030657806395d89b4114610336578063a217fddf1461035457610137565b8063248a9ca3116100ff578063248a9ca3146101f25780632f2ff15d1461022257806336568abe1461023e57806342842e0e1461025a57806345576f941461027657610137565b806301ffc9a71461013c57806306fdde031461016c578063081812fc1461018a578063095ea7b3146101ba57806323b872dd146101d6575b600080fd5b610156600480360381019061015191906121a9565b610444565b60405161016391906121f1565b60405180910390f35b610174610456565b60405161018191906122a5565b60405180910390f35b6101a4600480360381019061019f91906122fd565b6104e8565b6040516101b1919061236b565b60405180910390f35b6101d460048036038101906101cf91906123b2565b61056d565b005b6101f060048036038101906101eb91906123f2565b610685565b005b61020c6004803603810190610207919061247b565b6106e5565b60405161021991906124b7565b60405180910390f35b61023c600480360381019061023791906124d2565b610705565b005b610258600480360381019061025391906124d2565b61072e565b005b610274600480360381019061026f91906123f2565b6107b1565b005b610290600480360381019061028b9190612647565b6107d1565b60405161029d919061269f565b60405180910390f35b6102c060048036038101906102bb91906122fd565b61089e565b6040516102cd919061236b565b60405180910390f35b6102f060048036038101906102eb91906126ba565b610950565b6040516102fd919061269f565b60405180910390f35b610320600480360381019061031b91906124d2565b610a08565b60405161032d91906121f1565b60405180910390f35b61033e610a73565b60405161034b91906122a5565b60405180910390f35b61035c610b05565b60405161036991906124b7565b60405180910390f35b61038c60048036038101906103879190612713565b610b0c565b005b6103a860048036038101906103a391906127f4565b610b22565b005b6103c460048036038101906103bf91906122fd565b610b84565b6040516103d191906122a5565b60405180910390f35b6103e2610cd6565b6040516103ef91906124b7565b60405180910390f35b610412600480360381019061040d91906124d2565b610cfa565b005b61042e60048036038101906104299190612877565b610d23565b60405161043b91906121f1565b60405180910390f35b600061044f82610db7565b9050919050565b606060008054610465906128e6565b80601f0160208091040260200160405190810160405280929190818152602001828054610491906128e6565b80156104de5780601f106104b3576101008083540402835291602001916104de565b820191906000526020600020905b8154815290600101906020018083116104c157829003601f168201915b5050505050905090565b60006104f382610e31565b610532576040517f08c379a00000000000000000000000000000000000000000000000000000000081526004016105299061298a565b60405180910390fd5b6004600083815260200190815260200160002060009054906101000a900473ffffffffffffffffffffffffffffffffffffffff169050919050565b60006105788261089e565b90508073ffffffffffffffffffffffffffffffffffffffff168373ffffffffffffffffffffffffffffffffffffffff1614156105e9576040517f08c379a00000000000000000000000000000000000000000000000000000000081526004016105e090612a1c565b60405180910390fd5b8073ffffffffffffffffffffffffffffffffffffffff16610608610e9d565b73ffffffffffffffffffffffffffffffffffffffff161480610637575061063681610631610e9d565b610d23565b5b610676576040517f08c379a000000000000000000000000000000000000000000000000000000000815260040161066d90612aae565b60405180910390fd5b6106808383610ea5565b505050565b610696610690610e9d565b82610f5e565b6106d5576040517f08c379a00000000000000000000000000000000000000000000000000000000081526004016106cc90612b40565b60405180910390fd5b6106e083838361103c565b505050565b600060076000838152602001908152602001600020600101549050919050565b61070e826106e5565b61071f8161071a610e9d565b6112a3565b6107298383611340565b505050565b610736610e9d565b73ffffffffffffffffffffffffffffffffffffffff168173ffffffffffffffffffffffffffffffffffffffff16146107a3576040517f08c379a000000000000000000000000000000000000000000000000000000000815260040161079a90612bd2565b60405180910390fd5b6107ad8282611421565b5050565b6107cc83838360405180602001604052806000815250610b22565b505050565b60006107fd7f9f2df0fed2c77648de5860a4cc508cd0818c85b8b8a1ab4ceeef8d981c8956a633610a08565b61083c576040517f08c379a000000000000000000000000000000000000000000000000000000000815260040161083390612c3e565b60405180910390fd5b6108466008611503565b60006108526008611519565b905061085e3382611527565b6108688184611701565b610895600960009054906101000a900473ffffffffffffffffffffffffffffffffffffffff166001610b0c565b80915050919050565b6000806002600084815260200190815260200160002060009054906101000a900473ffffffffffffffffffffffffffffffffffffffff169050600073ffffffffffffffffffffffffffffffffffffffff168173ffffffffffffffffffffffffffffffffffffffff161415610947576040517f08c379a000000000000000000000000000000000000000000000000000000000815260040161093e90612cd0565b60405180910390fd5b80915050919050565b60008073ffffffffffffffffffffffffffffffffffffffff168273ffffffffffffffffffffffffffffffffffffffff1614156109c1576040517f08c379a00000000000000000000000000000000000000000000000000000000081526004016109b890612d62565b60405180910390fd5b600360008373ffffffffffffffffffffffffffffffffffffffff1673ffffffffffffffffffffffffffffffffffffffff168152602001908152602001600020549050919050565b60006007600084815260200190815260200160002060000160008373ffffffffffffffffffffffffffffffffffffffff1673ffffffffffffffffffffffffffffffffffffffff16815260200190815260200160002060009054906101000a900460ff16905092915050565b606060018054610a82906128e6565b80601f0160208091040260200160405190810160405280929190818152602001828054610aae906128e6565b8015610afb5780601f10610ad057610100808354040283529160200191610afb565b820191906000526020600020905b815481529060010190602001808311610ade57829003601f168201915b5050505050905090565b6000801b81565b610b1e610b17610e9d565b8383611775565b5050565b610b33610b2d610e9d565b83610f5e565b610b72576040517f08c379a0000000000000000000000000000000000000000000000000000000008152600401610b6990612b40565b60405180910390fd5b610b7e848484846118e2565b50505050565b6060610b8f82610e31565b610bce576040517f08c379a0000000000000000000000000000000000000000000000000000000008152600401610bc590612df4565b60405180910390fd5b6000600660008481526020019081526020016000208054610bee906128e6565b80601f0160208091040260200160405190810160405280929190818152602001828054610c1a906128e6565b8015610c675780601f10610c3c57610100808354040283529160200191610c67565b820191906000526020600020905b815481529060010190602001808311610c4a57829003601f168201915b505050505090506000610c7861193e565b9050600081511415610c8e578192505050610cd1565b600082511115610cc3578082604051602001610cab929190612e50565b60405160208183030381529060405292505050610cd1565b610ccc84611955565b925050505b919050565b7f9f2df0fed2c77648de5860a4cc508cd0818c85b8b8a1ab4ceeef8d981c8956a681565b610d03826106e5565b610d1481610d0f610e9d565b6112a3565b610d1e8383611421565b505050565b6000600560008473ffffffffffffffffffffffffffffffffffffffff1673ffffffffffffffffffffffffffffffffffffffff16815260200190815260200160002060008373ffffffffffffffffffffffffffffffffffffffff1673ffffffffffffffffffffffffffffffffffffffff16815260200190815260200160002060009054906101000a900460ff16905092915050565b60007f7965db0b000000000000000000000000000000000000000000000000000000007bffffffffffffffffffffffffffffffffffffffffffffffffffffffff1916827bffffffffffffffffffffffffffffffffffffffffffffffffffffffff19161480610e2a5750610e29826119fc565b5b9050919050565b60008073ffffffffffffffffffffffffffffffffffffffff166002600084815260200190815260200160002060009054906101000a900473ffffffffffffffffffffffffffffffffffffffff1673ffffffffffffffffffffffffffffffffffffffff1614159050919050565b600033905090565b816004600083815260200190815260200160002060006101000a81548173ffffffffffffffffffffffffffffffffffffffff021916908373ffffffffffffffffffffffffffffffffffffffff160217905550808273ffffffffffffffffffffffffffffffffffffffff16610f188361089e565b73ffffffffffffffffffffffffffffffffffffffff167f8c5be1e5ebec7d5bd14f71427d1e84f3dd0314c0f7b2291e5b200ac8c7c3b92560405160405180910390a45050565b6000610f6982610e31565b610fa8576040517f08c379a0000000000000000000000000000000000000000000000000000000008152600401610f9f90612ee6565b60405180910390fd5b6000610fb38361089e565b90508073ffffffffffffffffffffffffffffffffffffffff168473ffffffffffffffffffffffffffffffffffffffff16148061102257508373ffffffffffffffffffffffffffffffffffffffff1661100a846104e8565b73ffffffffffffffffffffffffffffffffffffffff16145b8061103357506110328185610d23565b5b91505092915050565b8273ffffffffffffffffffffffffffffffffffffffff1661105c8261089e565b73ffffffffffffffffffffffffffffffffffffffff16146110b2576040517f08c379a00000000000000000000000000000000000000000000000000000000081526004016110a990612f78565b60405180910390fd5b600073ffffffffffffffffffffffffffffffffffffffff168273ffffffffffffffffffffffffffffffffffffffff161415611122576040517f08c379a00000000000000000000000000000000000000000000000000000000081526004016111199061300a565b60405180910390fd5b61112d838383611ade565b611138600082610ea5565b6001600360008573ffffffffffffffffffffffffffffffffffffffff1673ffffffffffffffffffffffffffffffffffffffff16815260200190815260200160002060008282546111889190613059565b925050819055506001600360008473ffffffffffffffffffffffffffffffffffffffff1673ffffffffffffffffffffffffffffffffffffffff16815260200190815260200160002060008282546111df919061308d565b92505081905550816002600083815260200190815260200160002060006101000a81548173ffffffffffffffffffffffffffffffffffffffff021916908373ffffffffffffffffffffffffffffffffffffffff160217905550808273ffffffffffffffffffffffffffffffffffffffff168473ffffffffffffffffffffffffffffffffffffffff167fddf252ad1be2c89b69c2b068fc378daa952ba7f163c4a11628f55a4df523b3ef60405160405180910390a461129e838383611ae3565b505050565b6112ad8282610a08565b61133c576112d28173ffffffffffffffffffffffffffffffffffffffff166014611ae8565b6112e08360001c6020611ae8565b6040516020016112f192919061317b565b6040516020818303038152906040526040517f08c379a000000000000000000000000000000000000000000000000000000000815260040161133391906122a5565b60405180910390fd5b5050565b61134a8282610a08565b61141d5760016007600084815260200190815260200160002060000160008373ffffffffffffffffffffffffffffffffffffffff1673ffffffffffffffffffffffffffffffffffffffff16815260200190815260200160002060006101000a81548160ff0219169083151502179055506113c2610e9d565b73ffffffffffffffffffffffffffffffffffffffff168173ffffffffffffffffffffffffffffffffffffffff16837f2f8788117e7eff1d82e926ec794901d17c78024a50270940304540a733656f0d60405160405180910390a45b5050565b61142b8282610a08565b156114ff5760006007600084815260200190815260200160002060000160008373ffffffffffffffffffffffffffffffffffffffff1673ffffffffffffffffffffffffffffffffffffffff16815260200190815260200160002060006101000a81548160ff0219169083151502179055506114a4610e9d565b73ffffffffffffffffffffffffffffffffffffffff168173ffffffffffffffffffffffffffffffffffffffff16837ff6391f5c32d9c69d2a47ea670b442974b53935d1edc7fd64eb21e047a839171b60405160405180910390a45b5050565b6001816000016000828254019250508190555050565b600081600001549050919050565b600073ffffffffffffffffffffffffffffffffffffffff168273ffffffffffffffffffffffffffffffffffffffff161415611597576040517f08c379a000000000000000000000000000000000000000000000000000000000815260040161158e90613201565b60405180910390fd5b6115a081610e31565b156115e0576040517f08c379a00000000000000000000000000000000000000000000000000000000081526004016115d79061326d565b60405180910390fd5b6115ec60008383611ade565b6001600360008473ffffffffffffffffffffffffffffffffffffffff1673ffffffffffffffffffffffffffffffffffffffff168152602001908152602001600020600082825461163c919061308d565b92505081905550816002600083815260200190815260200160002060006101000a81548173ffffffffffffffffffffffffffffffffffffffff021916908373ffffffffffffffffffffffffffffffffffffffff160217905550808273ffffffffffffffffffffffffffffffffffffffff16600073ffffffffffffffffffffffffffffffffffffffff167fddf252ad1be2c89b69c2b068fc378daa952ba7f163c4a11628f55a4df523b3ef60405160405180910390a46116fd60008383611ae3565b5050565b61170a82610e31565b611749576040517f08c379a0000000000000000000000000000000000000000000000000000000008152600401611740906132ff565b60405180910390fd5b8060066000848152602001908152602001600020908051906020019061177092919061209a565b505050565b8173ffffffffffffffffffffffffffffffffffffffff168373ffffffffffffffffffffffffffffffffffffffff1614156117e4576040517f08c379a00000000000000000000000000000000000000000000000000000000081526004016117db9061336b565b60405180910390fd5b80600560008573ffffffffffffffffffffffffffffffffffffffff1673ffffffffffffffffffffffffffffffffffffffff16815260200190815260200160002060008473ffffffffffffffffffffffffffffffffffffffff1673ffffffffffffffffffffffffffffffffffffffff16815260200190815260200160002060006101000a81548160ff0219169083151502179055508173ffffffffffffffffffffffffffffffffffffffff168373ffffffffffffffffffffffffffffffffffffffff167f17307eab39ab6107e8899845ad3d59bd9653f200f220920489ca2b5937696c31836040516118d591906121f1565b60405180910390a3505050565b6118ed84848461103c565b6118f984848484611d24565b611938576040517f08c379a000000000000000000000000000000000000000000000000000000000815260040161192f906133fd565b60405180910390fd5b50505050565b606060405180602001604052806000815250905090565b606061196082610e31565b61199f576040517f08c379a00000000000000000000000000000000000000000000000000000000081526004016119969061348f565b60405180910390fd5b60006119a961193e565b905060008151116119c957604051806020016040528060008152506119f4565b806119d384611eac565b6040516020016119e4929190612e50565b6040516020818303038152906040525b915050919050565b60007f80ac58cd000000000000000000000000000000000000000000000000000000007bffffffffffffffffffffffffffffffffffffffffffffffffffffffff1916827bffffffffffffffffffffffffffffffffffffffffffffffffffffffff19161480611ac757507f5b5e139f000000000000000000000000000000000000000000000000000000007bffffffffffffffffffffffffffffffffffffffffffffffffffffffff1916827bffffffffffffffffffffffffffffffffffffffffffffffffffffffff1916145b80611ad75750611ad68261200d565b5b9050919050565b505050565b505050565b606060006002836002611afb91906134af565b611b05919061308d565b67ffffffffffffffff811115611b1e57611b1d61251c565b5b6040519080825280601f01601f191660200182016040528015611b505781602001600182028036833780820191505090505b5090507f300000000000000000000000000000000000000000000000000000000000000081600081518110611b8857611b87613509565b5b60200101907effffffffffffffffffffffffffffffffffffffffffffffffffffffffffffff1916908160001a9053507f780000000000000000000000000000000000000000000000000000000000000081600181518110611bec57611beb613509565b5b60200101907effffffffffffffffffffffffffffffffffffffffffffffffffffffffffffff1916908160001a90535060006001846002611c2c91906134af565b611c36919061308d565b90505b6001811115611cd6577f3031323334353637383961626364656600000000000000000000000000000000600f861660108110611c7857611c77613509565b5b1a60f81b828281518110611c8f57611c8e613509565b5b60200101907effffffffffffffffffffffffffffffffffffffffffffffffffffffffffffff1916908160001a905350600485901c945080611ccf90613538565b9050611c39565b5060008414611d1a576040517f08c379a0000000000000000000000000000000000000000000000000000000008152600401611d11906135ae565b60405180910390fd5b8091505092915050565b6000611d458473ffffffffffffffffffffffffffffffffffffffff16612077565b15611e9f578373ffffffffffffffffffffffffffffffffffffffff1663150b7a02611d6e610e9d565b8786866040518563ffffffff1660e01b8152600401611d909493929190613623565b6020604051808303816000875af1925050508015611dcc57506040513d601f19601f82011682018060405250810190611dc99190613684565b60015b611e4f573d8060008114611dfc576040519150601f19603f3d011682016040523d82523d6000602084013e611e01565b606091505b50600081511415611e47576040517f08c379a0000000000000000000000000000000000000000000000000000000008152600401611e3e906133fd565b60405180910390fd5b805181602001fd5b63150b7a0260e01b7bffffffffffffffffffffffffffffffffffffffffffffffffffffffff1916817bffffffffffffffffffffffffffffffffffffffffffffffffffffffff191614915050611ea4565b600190505b949350505050565b60606000821415611ef4576040518060400160405280600181526020017f30000000000000000000000000000000000000000000000000000000000000008152509050612008565b600082905060005b60008214611f26578080611f0f906136b1565b915050600a82611f1f9190613729565b9150611efc565b60008167ffffffffffffffff811115611f4257611f4161251c565b5b6040519080825280601f01601f191660200182016040528015611f745781602001600182028036833780820191505090505b5090505b6000851461200157600182611f8d9190613059565b9150600a85611f9c919061375a565b6030611fa8919061308d565b60f81b818381518110611fbe57611fbd613509565b5b60200101907effffffffffffffffffffffffffffffffffffffffffffffffffffffffffffff1916908160001a905350600a85611ffa9190613729565b9450611f78565b8093505050505b919050565b60007f01ffc9a7000000000000000000000000000000000000000000000000000000007bffffffffffffffffffffffffffffffffffffffffffffffffffffffff1916827bffffffffffffffffffffffffffffffffffffffffffffffffffffffff1916149050919050565b6000808273ffffffffffffffffffffffffffffffffffffffff163b119050919050565b8280546120a6906128e6565b90600052602060002090601f0160209004810192826120c8576000855561210f565b82601f106120e157805160ff191683800117855561210f565b8280016001018555821561210f579182015b8281111561210e5782518255916020019190600101906120f3565b5b50905061211c9190612120565b5090565b5b80821115612139576000816000905550600101612121565b5090565b6000604051905090565b600080fd5b600080fd5b60007fffffffff0000000000000000000000000000000000000000000000000000000082169050919050565b61218681612151565b811461219157600080fd5b50565b6000813590506121a38161217d565b92915050565b6000602082840312156121bf576121be612147565b5b60006121cd84828501612194565b91505092915050565b60008115159050919050565b6121eb816121d6565b82525050565b600060208201905061220660008301846121e2565b92915050565b600081519050919050565b600082825260208201905092915050565b60005b8381101561224657808201518184015260208101905061222b565b83811115612255576000848401525b50505050565b6000601f19601f8301169050919050565b60006122778261220c565b6122818185612217565b9350612291818560208601612228565b61229a8161225b565b840191505092915050565b600060208201905081810360008301526122bf818461226c565b905092915050565b6000819050919050565b6122da816122c7565b81146122e557600080fd5b50565b6000813590506122f7816122d1565b92915050565b60006020828403121561231357612312612147565b5b6000612321848285016122e8565b91505092915050565b600073ffffffffffffffffffffffffffffffffffffffff82169050919050565b60006123558261232a565b9050919050565b6123658161234a565b82525050565b6000602082019050612380600083018461235c565b92915050565b61238f8161234a565b811461239a57600080fd5b50565b6000813590506123ac81612386565b92915050565b600080604083850312156123c9576123c8612147565b5b60006123d78582860161239d565b92505060206123e8858286016122e8565b9150509250929050565b60008060006060848603121561240b5761240a612147565b5b60006124198682870161239d565b935050602061242a8682870161239d565b925050604061243b868287016122e8565b9150509250925092565b6000819050919050565b61245881612445565b811461246357600080fd5b50565b6000813590506124758161244f565b92915050565b60006020828403121561249157612490612147565b5b600061249f84828501612466565b91505092915050565b6124b181612445565b82525050565b60006020820190506124cc60008301846124a8565b92915050565b600080604083850312156124e9576124e8612147565b5b60006124f785828601612466565b92505060206125088582860161239d565b9150509250929050565b600080fd5b600080fd5b7f4e487b7100000000000000000000000000000000000000000000000000000000600052604160045260246000fd5b6125548261225b565b810181811067ffffffffffffffff821117156125735761257261251c565b5b80604052505050565b600061258661213d565b9050612592828261254b565b919050565b600067ffffffffffffffff8211156125b2576125b161251c565b5b6125bb8261225b565b9050602081019050919050565b82818337600083830152505050565b60006125ea6125e584612597565b61257c565b90508281526020810184848401111561260657612605612517565b5b6126118482856125c8565b509392505050565b600082601f83011261262e5761262d612512565b5b813561263e8482602086016125d7565b91505092915050565b60006020828403121561265d5761265c612147565b5b600082013567ffffffffffffffff81111561267b5761267a61214c565b5b61268784828501612619565b91505092915050565b612699816122c7565b82525050565b60006020820190506126b46000830184612690565b92915050565b6000602082840312156126d0576126cf612147565b5b60006126de8482850161239d565b91505092915050565b6126f0816121d6565b81146126fb57600080fd5b50565b60008135905061270d816126e7565b92915050565b6000806040838503121561272a57612729612147565b5b60006127388582860161239d565b9250506020612749858286016126fe565b9150509250929050565b600067ffffffffffffffff82111561276e5761276d61251c565b5b6127778261225b565b9050602081019050919050565b600061279761279284612753565b61257c565b9050828152602081018484840111156127b3576127b2612517565b5b6127be8482856125c8565b509392505050565b600082601f8301126127db576127da612512565b5b81356127eb848260208601612784565b91505092915050565b6000806000806080858703121561280e5761280d612147565b5b600061281c8782880161239d565b945050602061282d8782880161239d565b935050604061283e878288016122e8565b925050606085013567ffffffffffffffff81111561285f5761285e61214c565b5b61286b878288016127c6565b91505092959194509250565b6000806040838503121561288e5761288d612147565b5b600061289c8582860161239d565b92505060206128ad8582860161239d565b9150509250929050565b7f4e487b7100000000000000000000000000000000000000000000000000000000600052602260045260246000fd5b600060028204905060018216806128fe57607f821691505b60208210811415612912576129116128b7565b5b50919050565b7f4552433732313a20617070726f76656420717565727920666f72206e6f6e657860008201527f697374656e7420746f6b656e0000000000000000000000000000000000000000602082015250565b6000612974602c83612217565b915061297f82612918565b604082019050919050565b600060208201905081810360008301526129a381612967565b9050919050565b7f4552433732313a20617070726f76616c20746f2063757272656e74206f776e6560008201527f7200000000000000000000000000000000000000000000000000000000000000602082015250565b6000612a06602183612217565b9150612a11826129aa565b604082019050919050565b60006020820190508181036000830152612a35816129f9565b9050919050565b7f4552433732313a20617070726f76652063616c6c6572206973206e6f74206f7760008201527f6e6572206e6f7220617070726f76656420666f7220616c6c0000000000000000602082015250565b6000612a98603883612217565b9150612aa382612a3c565b604082019050919050565b60006020820190508181036000830152612ac781612a8b565b9050919050565b7f4552433732313a207472616e736665722063616c6c6572206973206e6f74206f60008201527f776e6572206e6f7220617070726f766564000000000000000000000000000000602082015250565b6000612b2a603183612217565b9150612b3582612ace565b604082019050919050565b60006020820190508181036000830152612b5981612b1d565b9050919050565b7f416363657373436f6e74726f6c3a2063616e206f6e6c792072656e6f756e636560008201527f20726f6c657320666f722073656c660000000000000000000000000000000000602082015250565b6000612bbc602f83612217565b9150612bc782612b60565b604082019050919050565b60006020820190508181036000830152612beb81612baf565b9050919050565b7f43616c6c6572206973206e6f742061206d696e74657200000000000000000000600082015250565b6000612c28601683612217565b9150612c3382612bf2565b602082019050919050565b60006020820190508181036000830152612c5781612c1b565b9050919050565b7f4552433732313a206f776e657220717565727920666f72206e6f6e657869737460008201527f656e7420746f6b656e0000000000000000000000000000000000000000000000602082015250565b6000612cba602983612217565b9150612cc582612c5e565b604082019050919050565b60006020820190508181036000830152612ce981612cad565b9050919050565b7f4552433732313a2062616c616e636520717565727920666f7220746865207a6560008201527f726f206164647265737300000000000000000000000000000000000000000000602082015250565b6000612d4c602a83612217565b9150612d5782612cf0565b604082019050919050565b60006020820190508181036000830152612d7b81612d3f565b9050919050565b7f45524337323155524953746f726167653a2055524920717565727920666f722060008201527f6e6f6e6578697374656e7420746f6b656e000000000000000000000000000000602082015250565b6000612dde603183612217565b9150612de982612d82565b604082019050919050565b60006020820190508181036000830152612e0d81612dd1565b9050919050565b600081905092915050565b6000612e2a8261220c565b612e348185612e14565b9350612e44818560208601612228565b80840191505092915050565b6000612e5c8285612e1f565b9150612e688284612e1f565b91508190509392505050565b7f4552433732313a206f70657261746f7220717565727920666f72206e6f6e657860008201527f697374656e7420746f6b656e0000000000000000000000000000000000000000602082015250565b6000612ed0602c83612217565b9150612edb82612e74565b604082019050919050565b60006020820190508181036000830152612eff81612ec3565b9050919050565b7f4552433732313a207472616e736665722066726f6d20696e636f72726563742060008201527f6f776e6572000000000000000000000000000000000000000000000000000000602082015250565b6000612f62602583612217565b9150612f6d82612f06565b604082019050919050565b60006020820190508181036000830152612f9181612f55565b9050919050565b7f4552433732313a207472616e7366657220746f20746865207a65726f2061646460008201527f7265737300000000000000000000000000000000000000000000000000000000602082015250565b6000612ff4602483612217565b9150612fff82612f98565b604082019050919050565b6000602082019050818103600083015261302381612fe7565b9050919050565b7f4e487b7100000000000000000000000000000000000000000000000000000000600052601160045260246000fd5b6000613064826122c7565b915061306f836122c7565b9250828210156130825761308161302a565b5b828203905092915050565b6000613098826122c7565b91506130a3836122c7565b9250827fffffffffffffffffffffffffffffffffffffffffffffffffffffffffffffffff038211156130d8576130d761302a565b5b828201905092915050565b7f416363657373436f6e74726f6c3a206163636f756e7420000000000000000000600082015250565b6000613119601783612e14565b9150613124826130e3565b601782019050919050565b7f206973206d697373696e6720726f6c6520000000000000000000000000000000600082015250565b6000613165601183612e14565b91506131708261312f565b601182019050919050565b60006131868261310c565b91506131928285612e1f565b915061319d82613158565b91506131a98284612e1f565b91508190509392505050565b7f4552433732313a206d696e7420746f20746865207a65726f2061646472657373600082015250565b60006131eb602083612217565b91506131f6826131b5565b602082019050919050565b6000602082019050818103600083015261321a816131de565b9050919050565b7f4552433732313a20746f6b656e20616c7265616479206d696e74656400000000600082015250565b6000613257601c83612217565b915061326282613221565b602082019050919050565b600060208201905081810360008301526132868161324a565b9050919050565b7f45524337323155524953746f726167653a2055524920736574206f66206e6f6e60008201527f6578697374656e7420746f6b656e000000000000000000000000000000000000602082015250565b60006132e9602e83612217565b91506132f48261328d565b604082019050919050565b60006020820190508181036000830152613318816132dc565b9050919050565b7f4552433732313a20617070726f766520746f2063616c6c657200000000000000600082015250565b6000613355601983612217565b91506133608261331f565b602082019050919050565b6000602082019050818103600083015261338481613348565b9050919050565b7f4552433732313a207472616e7366657220746f206e6f6e20455243373231526560008201527f63656976657220696d706c656d656e7465720000000000000000000000000000602082015250565b60006133e7603283612217565b91506133f28261338b565b604082019050919050565b60006020820190508181036000830152613416816133da565b9050919050565b7f4552433732314d657461646174613a2055524920717565727920666f72206e6f60008201527f6e6578697374656e7420746f6b656e0000000000000000000000000000000000602082015250565b6000613479602f83612217565b91506134848261341d565b604082019050919050565b600060208201905081810360008301526134a88161346c565b9050919050565b60006134ba826122c7565b91506134c5836122c7565b9250817fffffffffffffffffffffffffffffffffffffffffffffffffffffffffffffffff04831182151516156134fe576134fd61302a565b5b828202905092915050565b7f4e487b7100000000000000000000000000000000000000000000000000000000600052603260045260246000fd5b6000613543826122c7565b915060008214156135575761355661302a565b5b600182039050919050565b7f537472696e67733a20686578206c656e67746820696e73756666696369656e74600082015250565b6000613598602083612217565b91506135a382613562565b602082019050919050565b600060208201905081810360008301526135c78161358b565b9050919050565b600081519050919050565b600082825260208201905092915050565b60006135f5826135ce565b6135ff81856135d9565b935061360f818560208601612228565b6136188161225b565b840191505092915050565b6000608082019050613638600083018761235c565b613645602083018661235c565b6136526040830185612690565b818103606083015261366481846135ea565b905095945050505050565b60008151905061367e8161217d565b92915050565b60006020828403121561369a57613699612147565b5b60006136a88482850161366f565b91505092915050565b60006136bc826122c7565b91507fffffffffffffffffffffffffffffffffffffffffffffffffffffffffffffffff8214156136ef576136ee61302a565b5b600182019050919050565b7f4e487b7100000000000000000000000000000000000000000000000000000000600052601260045260246000fd5b6000613734826122c7565b915061373f836122c7565b92508261374f5761374e6136fa565b5b828204905092915050565b6000613765826122c7565b9150613770836122c7565b9250826137805761377f6136fa565b5b82820690509291505056fea2646970667358221220bcbb7ff48e581252487dcccfce28089089df072a33af31a1e19900d4548ff97664736f6c634300080a0033",
  "immutableReferences": {},
  "source": "// SPDX-License-Identifier: MIT\n\npragma solidity ^0.8.3;\n\nimport \"@openzeppelin/contracts/utils/Counters.sol\";\nimport \"@openzeppelin/contracts/token/ERC721/extensions/ERC721URIStorage.sol\";\nimport \"@openzeppelin/contracts/token/ERC721/ERC721.sol\";\nimport \"@openzeppelin/contracts/access/AccessControl.sol\";\n\ncontract NFT is ERC721URIStorage, AccessControl {\n\n    bytes32 public constant MINTER_ROLE = keccak256(\"MINTER_ROLE\");\n\n    using Counters for Counters.Counter;\n    Counters.Counter private _tokenIds;\n    address contractAddress;\n\n    constructor(address marketplaceAddress) ERC721(\"FashionVerse Token\", \"FVT\") {\n        contractAddress = marketplaceAddress;\n        _setupRole(DEFAULT_ADMIN_ROLE, msg.sender);\n        _setupRole(MINTER_ROLE, msg.sender);\n    }\n\n    function supportsInterface(bytes4 interfaceId) public view virtual override(ERC721, AccessControl) returns (bool) {\n        return super.supportsInterface(interfaceId);\n    }\n\n    function createToken(string memory tokenURI) public returns (uint) {\n        require(hasRole(MINTER_ROLE, msg.sender), \"Caller is not a minter\");\n        _tokenIds.increment();\n        uint256 newItemId = _tokenIds.current();\n\n        _mint(msg.sender, newItemId);\n        _setTokenURI(newItemId, tokenURI);\n        setApprovalForAll(contractAddress, true);\n        return newItemId;\n    }\n\n}",
  "sourcePath": "/Users/shreyas/FashionVerse/frontend/contracts/NFT.sol",
  "compiler": {
    "name": "solc",
    "version": "0.8.10+commit.fc410830.Emscripten.clang"
  },
  "schemaVersion": "3.4.4",
  "updatedAt": "2022-02-20T05:04:01.658Z",
  "networkType": "ethereum",
  "devdoc": {
    "kind": "dev",
    "methods": {
      "approve(address,uint256)": {
        "details": "See {IERC721-approve}."
      },
      "balanceOf(address)": {
        "details": "See {IERC721-balanceOf}."
      },
      "getApproved(uint256)": {
        "details": "See {IERC721-getApproved}."
      },
      "getRoleAdmin(bytes32)": {
        "details": "Returns the admin role that controls `role`. See {grantRole} and {revokeRole}. To change a role's admin, use {_setRoleAdmin}."
      },
      "grantRole(bytes32,address)": {
        "details": "Grants `role` to `account`. If `account` had not been already granted `role`, emits a {RoleGranted} event. Requirements: - the caller must have ``role``'s admin role."
      },
      "hasRole(bytes32,address)": {
        "details": "Returns `true` if `account` has been granted `role`."
      },
      "isApprovedForAll(address,address)": {
        "details": "See {IERC721-isApprovedForAll}."
      },
      "name()": {
        "details": "See {IERC721Metadata-name}."
      },
      "ownerOf(uint256)": {
        "details": "See {IERC721-ownerOf}."
      },
      "renounceRole(bytes32,address)": {
        "details": "Revokes `role` from the calling account. Roles are often managed via {grantRole} and {revokeRole}: this function's purpose is to provide a mechanism for accounts to lose their privileges if they are compromised (such as when a trusted device is misplaced). If the calling account had been revoked `role`, emits a {RoleRevoked} event. Requirements: - the caller must be `account`."
      },
      "revokeRole(bytes32,address)": {
        "details": "Revokes `role` from `account`. If `account` had been granted `role`, emits a {RoleRevoked} event. Requirements: - the caller must have ``role``'s admin role."
      },
      "safeTransferFrom(address,address,uint256)": {
        "details": "See {IERC721-safeTransferFrom}."
      },
      "safeTransferFrom(address,address,uint256,bytes)": {
        "details": "See {IERC721-safeTransferFrom}."
      },
      "setApprovalForAll(address,bool)": {
        "details": "See {IERC721-setApprovalForAll}."
      },
      "symbol()": {
        "details": "See {IERC721Metadata-symbol}."
      },
      "tokenURI(uint256)": {
        "details": "See {IERC721Metadata-tokenURI}."
      },
      "transferFrom(address,address,uint256)": {
        "details": "See {IERC721-transferFrom}."
      }
    },
    "version": 1
  },
  "userdoc": {
    "kind": "user",
    "methods": {},
    "version": 1
  }
}