{
  "contractName": "NFTMarket",
  "abi": [
    {
      "inputs": [],
      "stateMutability": "nonpayable",
      "type": "constructor"
    },
    {
      "anonymous": false,
      "inputs": [
        {
          "indexed": true,
          "internalType": "uint256",
          "name": "itemId",
          "type": "uint256"
        },
        {
          "indexed": false,
          "internalType": "uint256",
          "name": "timestamp",
          "type": "uint256"
        }
      ],
      "name": "MarketItemCancelled",
      "type": "event"
    },
    {
      "anonymous": false,
      "inputs": [
        {
          "indexed": true,
          "internalType": "uint256",
          "name": "itemId",
          "type": "uint256"
        },
        {
          "indexed": false,
          "internalType": "address",
          "name": "nftContract",
          "type": "address"
        },
        {
          "indexed": false,
          "internalType": "uint256[]",
          "name": "tokenIds",
          "type": "uint256[]"
        },
        {
          "indexed": false,
          "internalType": "bool[]",
          "name": "sold",
          "type": "bool[]"
        },
        {
          "indexed": false,
          "internalType": "address payable",
          "name": "seller",
          "type": "address"
        },
        {
          "indexed": false,
          "internalType": "uint256",
          "name": "available",
          "type": "uint256"
        },
        {
          "indexed": false,
          "internalType": "uint256",
          "name": "price",
          "type": "uint256"
        },
        {
          "indexed": false,
          "internalType": "uint256",
          "name": "releaseTime",
          "type": "uint256"
        },
        {
          "indexed": false,
          "internalType": "bool",
          "name": "locked",
          "type": "bool"
        },
        {
          "indexed": false,
          "internalType": "bool",
          "name": "cancelled",
          "type": "bool"
        }
      ],
      "name": "MarketItemChanged",
      "type": "event"
    },
    {
      "anonymous": false,
      "inputs": [
        {
          "indexed": true,
          "internalType": "uint256",
          "name": "itemId",
          "type": "uint256"
        },
        {
          "indexed": false,
          "internalType": "uint256",
          "name": "timestamp",
          "type": "uint256"
        }
      ],
      "name": "MarketItemCreated",
      "type": "event"
    },
    {
      "anonymous": false,
      "inputs": [
        {
          "indexed": true,
          "internalType": "uint256",
          "name": "itemId",
          "type": "uint256"
        },
        {
          "indexed": false,
          "internalType": "uint256",
          "name": "timestamp",
          "type": "uint256"
        }
      ],
      "name": "MarketItemLocked",
      "type": "event"
    },
    {
      "anonymous": false,
      "inputs": [
        {
          "indexed": true,
          "internalType": "uint256",
          "name": "itemId",
          "type": "uint256"
        },
        {
          "indexed": false,
          "internalType": "uint256",
          "name": "tokenId",
          "type": "uint256"
        },
        {
          "indexed": false,
          "internalType": "address",
          "name": "nftContract",
          "type": "address"
        },
        {
          "indexed": false,
          "internalType": "uint256",
          "name": "timestamp",
          "type": "uint256"
        },
        {
          "indexed": false,
          "internalType": "address",
          "name": "owner",
          "type": "address"
        }
      ],
      "name": "MarketItemSold",
      "type": "event"
    },
    {
      "anonymous": false,
      "inputs": [
        {
          "indexed": true,
          "internalType": "uint256",
          "name": "itemId",
          "type": "uint256"
        },
        {
          "indexed": false,
          "internalType": "uint256",
          "name": "timestamp",
          "type": "uint256"
        }
      ],
      "name": "MarketItemUnlocked",
      "type": "event"
    },
    {
      "anonymous": false,
      "inputs": [
        {
          "indexed": true,
          "internalType": "bytes32",
          "name": "role",
          "type": "bytes32"
        },
        {
          "indexed": true,
          "internalType": "bytes32",
          "name": "previousAdminRole",
          "type": "bytes32"
        },
        {
          "indexed": true,
          "internalType": "bytes32",
          "name": "newAdminRole",
          "type": "bytes32"
        }
      ],
      "name": "RoleAdminChanged",
      "type": "event"
    },
    {
      "anonymous": false,
      "inputs": [
        {
          "indexed": true,
          "internalType": "bytes32",
          "name": "role",
          "type": "bytes32"
        },
        {
          "indexed": true,
          "internalType": "address",
          "name": "account",
          "type": "address"
        },
        {
          "indexed": true,
          "internalType": "address",
          "name": "sender",
          "type": "address"
        }
      ],
      "name": "RoleGranted",
      "type": "event"
    },
    {
      "anonymous": false,
      "inputs": [
        {
          "indexed": true,
          "internalType": "bytes32",
          "name": "role",
          "type": "bytes32"
        },
        {
          "indexed": true,
          "internalType": "address",
          "name": "account",
          "type": "address"
        },
        {
          "indexed": true,
          "internalType": "address",
          "name": "sender",
          "type": "address"
        }
      ],
      "name": "RoleRevoked",
      "type": "event"
    },
    {
      "inputs": [],
      "name": "DEFAULT_ADMIN_ROLE",
      "outputs": [
        {
          "internalType": "bytes32",
          "name": "",
          "type": "bytes32"
        }
      ],
      "stateMutability": "view",
      "type": "function",
      "constant": true
    },
    {
      "inputs": [],
      "name": "MINTER_ROLE",
      "outputs": [
        {
          "internalType": "bytes32",
          "name": "",
          "type": "bytes32"
        }
      ],
      "stateMutability": "view",
      "type": "function",
      "constant": true
    },
    {
      "inputs": [
        {
          "internalType": "bytes32",
          "name": "role",
          "type": "bytes32"
        }
      ],
      "name": "getRoleAdmin",
      "outputs": [
        {
          "internalType": "bytes32",
          "name": "",
          "type": "bytes32"
        }
      ],
      "stateMutability": "view",
      "type": "function",
      "constant": true
    },
    {
      "inputs": [
        {
          "internalType": "bytes32",
          "name": "role",
          "type": "bytes32"
        },
        {
          "internalType": "address",
          "name": "account",
          "type": "address"
        }
      ],
      "name": "grantRole",
      "outputs": [],
      "stateMutability": "nonpayable",
      "type": "function"
    },
    {
      "inputs": [
        {
          "internalType": "bytes32",
          "name": "role",
          "type": "bytes32"
        },
        {
          "internalType": "address",
          "name": "account",
          "type": "address"
        }
      ],
      "name": "hasRole",
      "outputs": [
        {
          "internalType": "bool",
          "name": "",
          "type": "bool"
        }
      ],
      "stateMutability": "view",
      "type": "function",
      "constant": true
    },
    {
      "inputs": [
        {
          "internalType": "bytes32",
          "name": "role",
          "type": "bytes32"
        },
        {
          "internalType": "address",
          "name": "account",
          "type": "address"
        }
      ],
      "name": "renounceRole",
      "outputs": [],
      "stateMutability": "nonpayable",
      "type": "function"
    },
    {
      "inputs": [
        {
          "internalType": "bytes32",
          "name": "role",
          "type": "bytes32"
        },
        {
          "internalType": "address",
          "name": "account",
          "type": "address"
        }
      ],
      "name": "revokeRole",
      "outputs": [],
      "stateMutability": "nonpayable",
      "type": "function"
    },
    {
      "inputs": [
        {
          "internalType": "bytes4",
          "name": "interfaceId",
          "type": "bytes4"
        }
      ],
      "name": "supportsInterface",
      "outputs": [
        {
          "internalType": "bool",
          "name": "",
          "type": "bool"
        }
      ],
      "stateMutability": "view",
      "type": "function",
      "constant": true
    },
    {
      "inputs": [
        {
          "internalType": "address payable",
          "name": "pay",
          "type": "address"
        }
      ],
      "name": "updatePay",
      "outputs": [],
      "stateMutability": "nonpayable",
      "type": "function"
    },
    {
      "inputs": [],
      "name": "checkPay",
      "outputs": [
        {
          "internalType": "address",
          "name": "",
          "type": "address"
        }
      ],
      "stateMutability": "view",
      "type": "function",
      "constant": true
    },
    {
      "inputs": [
        {
          "internalType": "address",
          "name": "nftContract",
          "type": "address"
        },
        {
          "internalType": "uint256[]",
          "name": "tokenIds",
          "type": "uint256[]"
        },
        {
          "internalType": "uint256",
          "name": "price",
          "type": "uint256"
        },
        {
          "internalType": "uint256",
          "name": "releaseTime",
          "type": "uint256"
        }
      ],
      "name": "createMarketItem",
      "outputs": [],
      "stateMutability": "payable",
      "type": "function",
      "payable": true
    },
    {
      "inputs": [
        {
          "internalType": "address",
          "name": "nftContract",
          "type": "address"
        },
        {
          "internalType": "uint256[]",
          "name": "itemIds",
          "type": "uint256[]"
        },
        {
          "internalType": "uint256[]",
          "name": "amounts",
          "type": "uint256[]"
        }
      ],
      "name": "createMarketSale",
      "outputs": [],
      "stateMutability": "payable",
      "type": "function",
      "payable": true
    },
    {
      "inputs": [
        {
          "internalType": "uint256",
          "name": "itemId",
          "type": "uint256"
        }
      ],
      "name": "cancelItem",
      "outputs": [],
      "stateMutability": "nonpayable",
      "type": "function"
    },
    {
      "inputs": [
        {
          "internalType": "uint256",
          "name": "itemId",
          "type": "uint256"
        }
      ],
      "name": "lockItem",
      "outputs": [],
      "stateMutability": "nonpayable",
      "type": "function"
    },
    {
      "inputs": [
        {
          "internalType": "uint256",
          "name": "itemId",
          "type": "uint256"
        }
      ],
      "name": "unLockItem",
      "outputs": [],
      "stateMutability": "nonpayable",
      "type": "function"
    },
    {
      "inputs": [
        {
          "internalType": "uint256",
          "name": "itemId",
          "type": "uint256"
        }
      ],
      "name": "getItem",
      "outputs": [
        {
          "components": [
            {
              "internalType": "uint256",
              "name": "itemId",
              "type": "uint256"
            },
            {
              "internalType": "address",
              "name": "nftContract",
              "type": "address"
            },
            {
              "internalType": "uint256[]",
              "name": "tokenIds",
              "type": "uint256[]"
            },
            {
              "internalType": "bool[]",
              "name": "sold",
              "type": "bool[]"
            },
            {
              "internalType": "address payable",
              "name": "seller",
              "type": "address"
            },
            {
              "internalType": "uint256",
              "name": "available",
              "type": "uint256"
            },
            {
              "internalType": "uint256",
              "name": "price",
              "type": "uint256"
            },
            {
              "internalType": "uint256",
              "name": "releaseTime",
              "type": "uint256"
            },
            {
              "internalType": "bool",
              "name": "locked",
              "type": "bool"
            },
            {
              "internalType": "bool",
              "name": "cancelled",
              "type": "bool"
            }
          ],
          "internalType": "struct NFTMarket.MarketItem",
          "name": "",
          "type": "tuple"
        }
      ],
      "stateMutability": "view",
      "type": "function",
      "constant": true
    }
  ],
  "bytecode": "0x60806040523480156200001157600080fd5b50600160008190555033600460006101000a81548173ffffffffffffffffffffffffffffffffffffffff021916908373ffffffffffffffffffffffffffffffffffffffff160217905550620000706000801b336200010b60201b60201c565b620000a27f9f2df0fed2c77648de5860a4cc508cd0818c85b8b8a1ab4ceeef8d981c8956a6336200010b60201b60201c565b600460009054906101000a900473ffffffffffffffffffffffffffffffffffffffff16600560006101000a81548173ffffffffffffffffffffffffffffffffffffffff021916908373ffffffffffffffffffffffffffffffffffffffff16021790555062000285565b6200011d82826200012160201b60201c565b5050565b6200013382826200021260201b60201c565b6200020e57600180600084815260200190815260200160002060000160008373ffffffffffffffffffffffffffffffffffffffff1673ffffffffffffffffffffffffffffffffffffffff16815260200190815260200160002060006101000a81548160ff021916908315150217905550620001b36200027d60201b60201c565b73ffffffffffffffffffffffffffffffffffffffff168173ffffffffffffffffffffffffffffffffffffffff16837f2f8788117e7eff1d82e926ec794901d17c78024a50270940304540a733656f0d60405160405180910390a45b5050565b60006001600084815260200190815260200160002060000160008373ffffffffffffffffffffffffffffffffffffffff1673ffffffffffffffffffffffffffffffffffffffff16815260200190815260200160002060009054906101000a900460ff16905092915050565b600033905090565b61447480620002956000396000f3fe6080604052600436106100f35760003560e01c806361a35b7c1161008a578063ce00af0d11610059578063ce00af0d1461032b578063d539139314610347578063d547741f14610372578063f626e9711461039b576100f3565b806361a35b7c1461026f57806391d148541461029a578063a217fddf146102d7578063a3f9c7fe14610302576100f3565b80633129e773116100c65780633129e773146101c457806336568abe146102015780634976e7821461022a57806351563f8e14610246576100f3565b806301ffc9a7146100f8578063248a9ca3146101355780632f22acaf146101725780632f2ff15d1461019b575b600080fd5b34801561010457600080fd5b5061011f600480360381019061011a9190612385565b6103c4565b60405161012c91906123cd565b60405180910390f35b34801561014157600080fd5b5061015c6004803603810190610157919061241e565b61043e565b604051610169919061245a565b60405180910390f35b34801561017e57600080fd5b50610199600480360381019061019491906124ab565b61045e565b005b3480156101a757600080fd5b506101c260048036038101906101bd9190612536565b6105fb565b005b3480156101d057600080fd5b506101eb60048036038101906101e691906124ab565b610624565b6040516101f89190612803565b60405180910390f35b34801561020d57600080fd5b5061022860048036038101906102239190612536565b610831565b005b610244600480360381019061023f919061297e565b6108b4565b005b34801561025257600080fd5b5061026d600480360381019061026891906124ab565b61100f565b005b34801561027b57600080fd5b50610284611362565b6040516102919190612a18565b60405180910390f35b3480156102a657600080fd5b506102c160048036038101906102bc9190612536565b61138c565b6040516102ce91906123cd565b60405180910390f35b3480156102e357600080fd5b506102ec6113f7565b6040516102f9919061245a565b60405180910390f35b34801561030e57600080fd5b5061032960048036038101906103249190612a5f565b6113fe565b005b61034560048036038101906103409190612a8c565b6114ab565b005b34801561035357600080fd5b5061035c6118ed565b604051610369919061245a565b60405180910390f35b34801561037e57600080fd5b5061039960048036038101906103949190612536565b611911565b005b3480156103a757600080fd5b506103c260048036038101906103bd91906124ab565b61193a565b005b60007f7965db0b000000000000000000000000000000000000000000000000000000007bffffffffffffffffffffffffffffffffffffffffffffffffffffffff1916827bffffffffffffffffffffffffffffffffffffffffffffffffffffffff19161480610437575061043682611ad7565b5b9050919050565b600060016000838152602001908152602001600020600101549050919050565b600260005414156104a4576040517f08c379a000000000000000000000000000000000000000000000000000000000815260040161049b90612b6c565b60405180910390fd5b60026000819055506104d67f9f2df0fed2c77648de5860a4cc508cd0818c85b8b8a1ab4ceeef8d981c8956a63361138c565b610515576040517f08c379a000000000000000000000000000000000000000000000000000000000815260040161050c90612bd8565b60405180910390fd5b600015156006600083815260200190815260200160002060080160009054906101000a900460ff1615151415610580576040517f08c379a000000000000000000000000000000000000000000000000000000000815260040161057790612c44565b60405180910390fd5b60006006600083815260200190815260200160002060080160006101000a81548160ff0219169083151502179055506105b881611b41565b807f7871fee12f2aac9f53c816f1aebfca498df89ab270c64a394347aa3634fc91a6426040516105e89190612c73565b60405180910390a2600160008190555050565b6106048261043e565b61061581610610611cbf565b611cc7565b61061f8383611d64565b505050565b61062c612186565b6006600083815260200190815260200160002060405180610140016040529081600082015481526020016001820160009054906101000a900473ffffffffffffffffffffffffffffffffffffffff1673ffffffffffffffffffffffffffffffffffffffff1673ffffffffffffffffffffffffffffffffffffffff168152602001600282018054806020026020016040519081016040528092919081815260200182805480156106fa57602002820191906000526020600020905b8154815260200190600101908083116106e6575b505050505081526020016003820180548060200260200160405190810160405280929190818152602001828054801561077757602002820191906000526020600020906000905b82829054906101000a900460ff161515815260200190600101906020826000010492830192600103820291508084116107415790505b505050505081526020016004820160009054906101000a900473ffffffffffffffffffffffffffffffffffffffff1673ffffffffffffffffffffffffffffffffffffffff1673ffffffffffffffffffffffffffffffffffffffff1681526020016005820154815260200160068201548152602001600782015481526020016008820160009054906101000a900460ff161515151581526020016008820160019054906101000a900460ff1615151515815250509050919050565b610839611cbf565b73ffffffffffffffffffffffffffffffffffffffff168173ffffffffffffffffffffffffffffffffffffffff16146108a6576040517f08c379a000000000000000000000000000000000000000000000000000000000815260040161089d90612d00565b60405180910390fd5b6108b08282611e44565b5050565b600260005414156108fa576040517f08c379a00000000000000000000000000000000000000000000000000000000081526004016108f190612b6c565b60405180910390fd5b60026000819055508051825114610946576040517f08c379a000000000000000000000000000000000000000000000000000000000815260040161093d90612d6c565b60405180910390fd5b60008060005b8451811015610f8c5783818151811061096857610967612d8c565b5b60200260200101519150600085828151811061098757610986612d8c565b5b6020026020010151905082600660008885815181106109a9576109a8612d8c565b5b60200260200101518152602001908152602001600020600601546109cd9190612dea565b846109d89190612e44565b9350600186516109e89190612e9a565b821415610a3257833414610a31576040517f08c379a0000000000000000000000000000000000000000000000000000000008152600401610a2890612f40565b60405180910390fd5b5b8260066000888581518110610a4a57610a49612d8c565b5b60200260200101518152602001908152602001600020600501541015610aa5576040517f08c379a0000000000000000000000000000000000000000000000000000000008152600401610a9c90612fac565b60405180910390fd5b6000151560066000888581518110610ac057610abf612d8c565b5b6020026020010151815260200190815260200160002060080160009054906101000a900460ff16151514610b29576040517f08c379a0000000000000000000000000000000000000000000000000000000008152600401610b2090613018565b60405180910390fd5b6000151560066000888581518110610b4457610b43612d8c565b5b6020026020010151815260200190815260200160002060080160019054906101000a900460ff16151514610bad576040517f08c379a0000000000000000000000000000000000000000000000000000000008152600401610ba490613084565b60405180910390fd5b60066000878481518110610bc457610bc3612d8c565b5b60200260200101518152602001908152602001600020600701544211610c1f576040517f08c379a0000000000000000000000000000000000000000000000000000000008152600401610c16906130f0565b60405180910390fd5b60005b60066000888581518110610c3957610c38612d8c565b5b6020026020010151815260200190815260200160002060020180549050811015610f6e576001151560066000898681518110610c7857610c77612d8c565b5b602002602001015181526020019081526020016000206003018281548110610ca357610ca2612d8c565b5b90600052602060002090602091828204019190069054906101000a900460ff16151514610f5b578773ffffffffffffffffffffffffffffffffffffffff166323b872dd3033600660008c8981518110610cff57610cfe612d8c565b5b602002602001015181526020019081526020016000206002018581548110610d2a57610d29612d8c565b5b90600052602060002001546040518463ffffffff1660e01b8152600401610d5393929190613110565b600060405180830381600087803b158015610d6d57600080fd5b505af1158015610d81573d6000803e3d6000fd5b50505050600160066000898681518110610d9e57610d9d612d8c565b5b602002602001015181526020019081526020016000206003018281548110610dc957610dc8612d8c565b5b90600052602060002090602091828204019190066101000a81548160ff021916908315150217905550600184610dff9190612e9a565b9350600160066000898681518110610e1a57610e19612d8c565b5b6020026020010151815260200190815260200160002060050154610e3e9190612e9a565b60066000898681518110610e5557610e54612d8c565b5b60200260200101518152602001908152602001600020600501819055506000841415610e8057610f6e565b817f79940c3f82ffcf63df9ebf2101ecf7ef062b3fb36ff8dd0b92682177ead6eb2e600660008a8781518110610eb957610eb8612d8c565b5b602002602001015181526020019081526020016000206002018381548110610ee457610ee3612d8c565b5b9060005260206000200154600660008b8881518110610f0657610f05612d8c565b5b6020026020010151815260200190815260200160002060010160009054906101000a900473ffffffffffffffffffffffffffffffffffffffff164233604051610f529493929190613147565b60405180910390a25b8080610f669061318c565b915050610c22565b50610f7881611b41565b508080610f849061318c565b91505061094c565b50600560009054906101000a900473ffffffffffffffffffffffffffffffffffffffff1673ffffffffffffffffffffffffffffffffffffffff166108fc349081150290604051600060405180830381858888f19350505050158015610ff5573d6000803e3d6000fd5b506110006003611f26565b50506001600081905550505050565b60026000541415611055576040517f08c379a000000000000000000000000000000000000000000000000000000000815260040161104c90612b6c565b60405180910390fd5b60026000819055506110877f9f2df0fed2c77648de5860a4cc508cd0818c85b8b8a1ab4ceeef8d981c8956a63361138c565b6110c6576040517f08c379a00000000000000000000000000000000000000000000000000000000081526004016110bd90612bd8565b60405180910390fd5b600115156006600083815260200190815260200160002060080160019054906101000a900460ff1615151415611131576040517f08c379a000000000000000000000000000000000000000000000000000000000815260040161112890613221565b60405180910390fd5b60005b60066000838152602001908152602001600020600201805490508110156112e6576001151560066000848152602001908152602001600020600301828154811061118157611180612d8c565b5b90600052602060002090602091828204019190069054906101000a900460ff161515146112d3576006600083815260200190815260200160002060010160009054906101000a900473ffffffffffffffffffffffffffffffffffffffff1673ffffffffffffffffffffffffffffffffffffffff166323b872dd303360066000878152602001908152602001600020600201858154811061122457611223612d8c565b5b90600052602060002001546040518463ffffffff1660e01b815260040161124d93929190613110565b600060405180830381600087803b15801561126757600080fd5b505af115801561127b573d6000803e3d6000fd5b5050505060016006600084815260200190815260200160002060030182815481106112a9576112a8612d8c565b5b90600052602060002090602091828204019190066101000a81548160ff0219169083151502179055505b80806112de9061318c565b915050611134565b5060016006600083815260200190815260200160002060080160016101000a81548160ff02191690831515021790555061131f81611b41565b807f55cb0253dd2b009607607793e554d8caf94df298c5741f31e99382829c8673734260405161134f9190612c73565b60405180910390a2600160008190555050565b6000600560009054906101000a900473ffffffffffffffffffffffffffffffffffffffff16905090565b60006001600084815260200190815260200160002060000160008373ffffffffffffffffffffffffffffffffffffffff1673ffffffffffffffffffffffffffffffffffffffff16815260200190815260200160002060009054906101000a900460ff16905092915050565b6000801b81565b6114287f9f2df0fed2c77648de5860a4cc508cd0818c85b8b8a1ab4ceeef8d981c8956a63361138c565b611467576040517f08c379a000000000000000000000000000000000000000000000000000000000815260040161145e90612bd8565b60405180910390fd5b80600560006101000a81548173ffffffffffffffffffffffffffffffffffffffff021916908373ffffffffffffffffffffffffffffffffffffffff16021790555050565b600260005414156114f1576040517f08c379a00000000000000000000000000000000000000000000000000000000081526004016114e890612b6c565b60405180910390fd5b60026000819055506115237f9f2df0fed2c77648de5860a4cc508cd0818c85b8b8a1ab4ceeef8d981c8956a63361138c565b611562576040517f08c379a000000000000000000000000000000000000000000000000000000000815260040161155990612bd8565b60405180910390fd5b600082116115a5576040517f08c379a000000000000000000000000000000000000000000000000000000000815260040161159c9061328d565b60405180910390fd5b6115af6002611f26565b60006115bb6002611f3c565b90506000845167ffffffffffffffff8111156115da576115d961283b565b5b6040519080825280602002602001820160405280156116085781602001602082028036833780820191505090505b50905060005b85518110156116da578673ffffffffffffffffffffffffffffffffffffffff166323b872dd333089858151811061164857611647612d8c565b5b60200260200101516040518463ffffffff1660e01b815260040161166e93929190613110565b600060405180830381600087803b15801561168857600080fd5b505af115801561169c573d6000803e3d6000fd5b5050505060008282815181106116b5576116b4612d8c565b5b60200260200101901515908115158152505080806116d29061318c565b91505061160e565b506040518061014001604052808381526020018773ffffffffffffffffffffffffffffffffffffffff1681526020018681526020018281526020013373ffffffffffffffffffffffffffffffffffffffff1681526020018651815260200185815260200184815260200160001515815260200160001515815250600660008481526020019081526020016000206000820151816000015560208201518160010160006101000a81548173ffffffffffffffffffffffffffffffffffffffff021916908373ffffffffffffffffffffffffffffffffffffffff16021790555060408201518160020190805190602001906117d4929190612209565b5060608201518160030190805190602001906117f1929190612256565b5060808201518160040160006101000a81548173ffffffffffffffffffffffffffffffffffffffff021916908373ffffffffffffffffffffffffffffffffffffffff16021790555060a0820151816005015560c0820151816006015560e082015181600701556101008201518160080160006101000a81548160ff0219169083151502179055506101208201518160080160016101000a81548160ff0219169083151502179055509050506118a582611b41565b817f0e632c8edff1ee5ed4335e96c2f9721af5f3c69b8b91ed08f68cc73d03a4c194426040516118d59190612c73565b60405180910390a25050600160008190555050505050565b7f9f2df0fed2c77648de5860a4cc508cd0818c85b8b8a1ab4ceeef8d981c8956a681565b61191a8261043e565b61192b81611926611cbf565b611cc7565b6119358383611e44565b505050565b60026000541415611980576040517f08c379a000000000000000000000000000000000000000000000000000000000815260040161197790612b6c565b60405180910390fd5b60026000819055506119b27f9f2df0fed2c77648de5860a4cc508cd0818c85b8b8a1ab4ceeef8d981c8956a63361138c565b6119f1576040517f08c379a00000000000000000000000000000000000000000000000000000000081526004016119e890612bd8565b60405180910390fd5b600115156006600083815260200190815260200160002060080160009054906101000a900460ff1615151415611a5c576040517f08c379a0000000000000000000000000000000000000000000000000000000008152600401611a53906132f9565b60405180910390fd5b60016006600083815260200190815260200160002060080160006101000a81548160ff021916908315150217905550611a9481611b41565b807f3cd4f9b6769b25b4adb4c29005e18a534b9474bea42ff7e0890c9059563ca18d42604051611ac49190612c73565b60405180910390a2600160008190555050565b60007f01ffc9a7000000000000000000000000000000000000000000000000000000007bffffffffffffffffffffffffffffffffffffffffffffffffffffffff1916827bffffffffffffffffffffffffffffffffffffffffffffffffffffffff1916149050919050565b60066000828152602001908152602001600020600001547eec30e77619602ed8ad1ab873389865cc4a52a787f07c400499c7dfcb9cd7706006600084815260200190815260200160002060010160009054906101000a900473ffffffffffffffffffffffffffffffffffffffff1660066000858152602001908152602001600020600201600660008681526020019081526020016000206003016006600087815260200190815260200160002060040160009054906101000a900473ffffffffffffffffffffffffffffffffffffffff1660066000888152602001908152602001600020600501546006600089815260200190815260200160002060060154600660008a815260200190815260200160002060070154600660008b815260200190815260200160002060080160009054906101000a900460ff16600660008c815260200190815260200160002060080160019054906101000a900460ff16604051611cb499989796959493929190614166565b60405180910390a250565b600033905090565b611cd1828261138c565b611d6057611cf68173ffffffffffffffffffffffffffffffffffffffff166014611f4a565b611d048360001c6020611f4a565b604051602001611d15929190614313565b6040516020818303038152906040526040517f08c379a0000000000000000000000000000000000000000000000000000000008152600401611d579190614386565b60405180910390fd5b5050565b611d6e828261138c565b611e4057600180600084815260200190815260200160002060000160008373ffffffffffffffffffffffffffffffffffffffff1673ffffffffffffffffffffffffffffffffffffffff16815260200190815260200160002060006101000a81548160ff021916908315150217905550611de5611cbf565b73ffffffffffffffffffffffffffffffffffffffff168173ffffffffffffffffffffffffffffffffffffffff16837f2f8788117e7eff1d82e926ec794901d17c78024a50270940304540a733656f0d60405160405180910390a45b5050565b611e4e828261138c565b15611f225760006001600084815260200190815260200160002060000160008373ffffffffffffffffffffffffffffffffffffffff1673ffffffffffffffffffffffffffffffffffffffff16815260200190815260200160002060006101000a81548160ff021916908315150217905550611ec7611cbf565b73ffffffffffffffffffffffffffffffffffffffff168173ffffffffffffffffffffffffffffffffffffffff16837ff6391f5c32d9c69d2a47ea670b442974b53935d1edc7fd64eb21e047a839171b60405160405180910390a45b5050565b6001816000016000828254019250508190555050565b600081600001549050919050565b606060006002836002611f5d9190612dea565b611f679190612e44565b67ffffffffffffffff811115611f8057611f7f61283b565b5b6040519080825280601f01601f191660200182016040528015611fb25781602001600182028036833780820191505090505b5090507f300000000000000000000000000000000000000000000000000000000000000081600081518110611fea57611fe9612d8c565b5b60200101907effffffffffffffffffffffffffffffffffffffffffffffffffffffffffffff1916908160001a9053507f78000000000000000000000000000000000000000000000000000000000000008160018151811061204e5761204d612d8c565b5b60200101907effffffffffffffffffffffffffffffffffffffffffffffffffffffffffffff1916908160001a9053506000600184600261208e9190612dea565b6120989190612e44565b90505b6001811115612138577f3031323334353637383961626364656600000000000000000000000000000000600f8616601081106120da576120d9612d8c565b5b1a60f81b8282815181106120f1576120f0612d8c565b5b60200101907effffffffffffffffffffffffffffffffffffffffffffffffffffffffffffff1916908160001a905350600485901c945080612131906143a8565b905061209b565b506000841461217c576040517f08c379a00000000000000000000000000000000000000000000000000000000081526004016121739061441e565b60405180910390fd5b8091505092915050565b60405180610140016040528060008152602001600073ffffffffffffffffffffffffffffffffffffffff1681526020016060815260200160608152602001600073ffffffffffffffffffffffffffffffffffffffff1681526020016000815260200160008152602001600081526020016000151581526020016000151581525090565b828054828255906000526020600020908101928215612245579160200282015b82811115612244578251825591602001919060010190612229565b5b50905061225291906122fc565b5090565b82805482825590600052602060002090601f016020900481019282156122eb5791602002820160005b838211156122bc57835183826101000a81548160ff021916908315150217905550926020019260010160208160000104928301926001030261227f565b80156122e95782816101000a81549060ff02191690556001016020816000010492830192600103026122bc565b505b5090506122f891906122fc565b5090565b5b808211156123155760008160009055506001016122fd565b5090565b6000604051905090565b600080fd5b600080fd5b60007fffffffff0000000000000000000000000000000000000000000000000000000082169050919050565b6123628161232d565b811461236d57600080fd5b50565b60008135905061237f81612359565b92915050565b60006020828403121561239b5761239a612323565b5b60006123a984828501612370565b91505092915050565b60008115159050919050565b6123c7816123b2565b82525050565b60006020820190506123e260008301846123be565b92915050565b6000819050919050565b6123fb816123e8565b811461240657600080fd5b50565b600081359050612418816123f2565b92915050565b60006020828403121561243457612433612323565b5b600061244284828501612409565b91505092915050565b612454816123e8565b82525050565b600060208201905061246f600083018461244b565b92915050565b6000819050919050565b61248881612475565b811461249357600080fd5b50565b6000813590506124a58161247f565b92915050565b6000602082840312156124c1576124c0612323565b5b60006124cf84828501612496565b91505092915050565b600073ffffffffffffffffffffffffffffffffffffffff82169050919050565b6000612503826124d8565b9050919050565b612513816124f8565b811461251e57600080fd5b50565b6000813590506125308161250a565b92915050565b6000806040838503121561254d5761254c612323565b5b600061255b85828601612409565b925050602061256c85828601612521565b9150509250929050565b61257f81612475565b82525050565b61258e816124f8565b82525050565b600081519050919050565b600082825260208201905092915050565b6000819050602082019050919050565b60006125cc8383612576565b60208301905092915050565b6000602082019050919050565b60006125f082612594565b6125fa818561259f565b9350612605836125b0565b8060005b8381101561263657815161261d88826125c0565b9750612628836125d8565b925050600181019050612609565b5085935050505092915050565b600081519050919050565b600082825260208201905092915050565b6000819050602082019050919050565b612678816123b2565b82525050565b600061268a838361266f565b60208301905092915050565b6000602082019050919050565b60006126ae82612643565b6126b8818561264e565b93506126c38361265f565b8060005b838110156126f45781516126db888261267e565b97506126e683612696565b9250506001810190506126c7565b5085935050505092915050565b600061270c826124d8565b9050919050565b61271c81612701565b82525050565b60006101408301600083015161273b6000860182612576565b50602083015161274e6020860182612585565b506040830151848203604086015261276682826125e5565b9150506060830151848203606086015261278082826126a3565b91505060808301516127956080860182612713565b5060a08301516127a860a0860182612576565b5060c08301516127bb60c0860182612576565b5060e08301516127ce60e0860182612576565b506101008301516127e361010086018261266f565b506101208301516127f861012086018261266f565b508091505092915050565b6000602082019050818103600083015261281d8184612722565b905092915050565b600080fd5b6000601f19601f8301169050919050565b7f4e487b7100000000000000000000000000000000000000000000000000000000600052604160045260246000fd5b6128738261282a565b810181811067ffffffffffffffff821117156128925761289161283b565b5b80604052505050565b60006128a5612319565b90506128b1828261286a565b919050565b600067ffffffffffffffff8211156128d1576128d061283b565b5b602082029050602081019050919050565b600080fd5b60006128fa6128f5846128b6565b61289b565b9050808382526020820190506020840283018581111561291d5761291c6128e2565b5b835b8181101561294657806129328882612496565b84526020840193505060208101905061291f565b5050509392505050565b600082601f83011261296557612964612825565b5b81356129758482602086016128e7565b91505092915050565b60008060006060848603121561299757612996612323565b5b60006129a586828701612521565b935050602084013567ffffffffffffffff8111156129c6576129c5612328565b5b6129d286828701612950565b925050604084013567ffffffffffffffff8111156129f3576129f2612328565b5b6129ff86828701612950565b9150509250925092565b612a12816124f8565b82525050565b6000602082019050612a2d6000830184612a09565b92915050565b612a3c81612701565b8114612a4757600080fd5b50565b600081359050612a5981612a33565b92915050565b600060208284031215612a7557612a74612323565b5b6000612a8384828501612a4a565b91505092915050565b60008060008060808587031215612aa657612aa5612323565b5b6000612ab487828801612521565b945050602085013567ffffffffffffffff811115612ad557612ad4612328565b5b612ae187828801612950565b9350506040612af287828801612496565b9250506060612b0387828801612496565b91505092959194509250565b600082825260208201905092915050565b7f5265656e7472616e637947756172643a207265656e7472616e742063616c6c00600082015250565b6000612b56601f83612b0f565b9150612b6182612b20565b602082019050919050565b60006020820190508181036000830152612b8581612b49565b9050919050565b7f43616c6c6572206973206e6f742061206d696e74657200000000000000000000600082015250565b6000612bc2601683612b0f565b9150612bcd82612b8c565b602082019050919050565b60006020820190508181036000830152612bf181612bb5565b9050919050565b7f4974656d20697320616c726561647920756e6c6f636b65640000000000000000600082015250565b6000612c2e601883612b0f565b9150612c3982612bf8565b602082019050919050565b60006020820190508181036000830152612c5d81612c21565b9050919050565b612c6d81612475565b82525050565b6000602082019050612c886000830184612c64565b92915050565b7f416363657373436f6e74726f6c3a2063616e206f6e6c792072656e6f756e636560008201527f20726f6c657320666f722073656c660000000000000000000000000000000000602082015250565b6000612cea602f83612b0f565b9150612cf582612c8e565b604082019050919050565b60006020820190508181036000830152612d1981612cdd565b9050919050565b7f496e76616c696420416d6f756e74000000000000000000000000000000000000600082015250565b6000612d56600e83612b0f565b9150612d6182612d20565b602082019050919050565b60006020820190508181036000830152612d8581612d49565b9050919050565b7f4e487b7100000000000000000000000000000000000000000000000000000000600052603260045260246000fd5b7f4e487b7100000000000000000000000000000000000000000000000000000000600052601160045260246000fd5b6000612df582612475565b9150612e0083612475565b9250817fffffffffffffffffffffffffffffffffffffffffffffffffffffffffffffffff0483118215151615612e3957612e38612dbb565b5b828202905092915050565b6000612e4f82612475565b9150612e5a83612475565b9250827fffffffffffffffffffffffffffffffffffffffffffffffffffffffffffffffff03821115612e8f57612e8e612dbb565b5b828201905092915050565b6000612ea582612475565b9150612eb083612475565b925082821015612ec357612ec2612dbb565b5b828203905092915050565b7f506c65617365207375626d6974207468652061736b696e67207072696365206960008201527f6e206f7264657220746f20636f6d706c65746520746865207075726368617365602082015250565b6000612f2a604083612b0f565b9150612f3582612ece565b604082019050919050565b60006020820190508181036000830152612f5981612f1d565b9050919050565b7f5468657365206d616e79206974656d7320646f6e277420657869737400000000600082015250565b6000612f96601c83612b0f565b9150612fa182612f60565b602082019050919050565b60006020820190508181036000830152612fc581612f89565b9050919050565b7f4974656d206973206c6f636b6564000000000000000000000000000000000000600082015250565b6000613002600e83612b0f565b915061300d82612fcc565b602082019050919050565b6000602082019050818103600083015261303181612ff5565b9050919050565b7f4974656d207761732063616e63656c6c65640000000000000000000000000000600082015250565b600061306e601283612b0f565b915061307982613038565b602082019050919050565b6000602082019050818103600083015261309d81613061565b9050919050565b7f4974656d206e6f7420757020666f722073616c65207965740000000000000000600082015250565b60006130da601883612b0f565b91506130e5826130a4565b602082019050919050565b60006020820190508181036000830152613109816130cd565b9050919050565b60006060820190506131256000830186612a09565b6131326020830185612a09565b61313f6040830184612c64565b949350505050565b600060808201905061315c6000830187612c64565b6131696020830186612a09565b6131766040830185612c64565b6131836060830184612a09565b95945050505050565b600061319782612475565b91507fffffffffffffffffffffffffffffffffffffffffffffffffffffffffffffffff8214156131ca576131c9612dbb565b5b600182019050919050565b7f4974656d20697320616c72656164792063616e63656c6c656400000000000000600082015250565b600061320b601983612b0f565b9150613216826131d5565b602082019050919050565b6000602082019050818103600083015261323a816131fe565b9050919050565b7f5072696365206d757374206265206174206c6561737420312077656900000000600082015250565b6000613277601c83612b0f565b915061328282613241565b602082019050919050565b600060208201905081810360008301526132a68161326a565b9050919050565b7f4974656d20697320616c7265616479206c6f636b656400000000000000000000600082015250565b60006132e3601683612b0f565b91506132ee826132ad565b602082019050919050565b60006020820190508181036000830152613312816132d6565b9050919050565b600081549050919050565b600082825260208201905092915050565b60008190508160005260206000209050919050565b60008160001c9050919050565b6000819050919050565b600061337461336f8361334a565b613357565b9050919050565b60006133878254613361565b9050919050565b6000600182019050919050565b60006133a682613319565b6133b08185613324565b93506133bb83613335565b8060005b838110156133f3576133d08261337b565b6133da88826125c0565b97506133e58361338e565b9250506001810190506133bf565b5085935050505092915050565b600081549050919050565b600082825260208201905092915050565b60008190508160005260206000209050919050565b600060ff82169050919050565b600061345161344c8361334a565b613431565b9050919050565b60008160081c9050919050565b600061347861347383613458565b613431565b9050919050565b60008160101c9050919050565b600061349f61349a8361347f565b613431565b9050919050565b60008160181c9050919050565b60006134c66134c1836134a6565b613431565b9050919050565b60008160201c9050919050565b60006134ed6134e8836134cd565b613431565b9050919050565b60008160281c9050919050565b600061351461350f836134f4565b613431565b9050919050565b60008160301c9050919050565b600061353b6135368361351b565b613431565b9050919050565b60008160381c9050919050565b600061356261355d83613542565b613431565b9050919050565b60008160401c9050919050565b600061358961358483613569565b613431565b9050919050565b60008160481c9050919050565b60006135b06135ab83613590565b613431565b9050919050565b60008160501c9050919050565b60006135d76135d2836135b7565b613431565b9050919050565b60008160581c9050919050565b60006135fe6135f9836135de565b613431565b9050919050565b60008160601c9050919050565b600061362561362083613605565b613431565b9050919050565b60008160681c9050919050565b600061364c6136478361362c565b613431565b9050919050565b60008160701c9050919050565b600061367361366e83613653565b613431565b9050919050565b60008160781c9050919050565b600061369a6136958361367a565b613431565b9050919050565b60008160801c9050919050565b60006136c16136bc836136a1565b613431565b9050919050565b60008160881c9050919050565b60006136e86136e3836136c8565b613431565b9050919050565b60008160901c9050919050565b600061370f61370a836136ef565b613431565b9050919050565b60008160981c9050919050565b600061373661373183613716565b613431565b9050919050565b60008160a01c9050919050565b600061375d6137588361373d565b613431565b9050919050565b60008160a81c9050919050565b600061378461377f83613764565b613431565b9050919050565b60008160b01c9050919050565b60006137ab6137a68361378b565b613431565b9050919050565b60008160b81c9050919050565b60006137d26137cd836137b2565b613431565b9050919050565b60008160c01c9050919050565b60006137f96137f4836137d9565b613431565b9050919050565b60008160c81c9050919050565b600061382061381b83613800565b613431565b9050919050565b60008160d01c9050919050565b600061384761384283613827565b613431565b9050919050565b60008160d81c9050919050565b600061386e6138698361384e565b613431565b9050919050565b60008160e01c9050919050565b600061389561389083613875565b613431565b9050919050565b60008160e81c9050919050565b60006138bc6138b78361389c565b613431565b9050919050565b60008160f01c9050919050565b60006138e36138de836138c3565b613431565b9050919050565b60008160f81c9050919050565b600061390a613905836138ea565b613431565b9050919050565b600061391c82613400565b613926818561340b565b9350836139328461341c565b6000600115613c5f575b83600160200382011015613c5e57815461395e886139598361343e565b61266f565b6020880197506139768861397183613465565b61266f565b60208801975061398e886139898361348c565b61266f565b6020880197506139a6886139a1836134b3565b61266f565b6020880197506139be886139b9836134da565b61266f565b6020880197506139d6886139d183613501565b61266f565b6020880197506139ee886139e983613528565b61266f565b602088019750613a0688613a018361354f565b61266f565b602088019750613a1e88613a1983613576565b61266f565b602088019750613a3688613a318361359d565b61266f565b602088019750613a4e88613a49836135c4565b61266f565b602088019750613a6688613a61836135eb565b61266f565b602088019750613a7e88613a7983613612565b61266f565b602088019750613a9688613a9183613639565b61266f565b602088019750613aae88613aa983613660565b61266f565b602088019750613ac688613ac183613687565b61266f565b602088019750613ade88613ad9836136ae565b61266f565b602088019750613af688613af1836136d5565b61266f565b602088019750613b0e88613b09836136fc565b61266f565b602088019750613b2688613b2183613723565b61266f565b602088019750613b3e88613b398361374a565b61266f565b602088019750613b5688613b5183613771565b61266f565b602088019750613b6e88613b6983613798565b61266f565b602088019750613b8688613b81836137bf565b61266f565b602088019750613b9e88613b99836137e6565b61266f565b602088019750613bb688613bb18361380d565b61266f565b602088019750613bce88613bc983613834565b61266f565b602088019750613be688613be18361385b565b61266f565b602088019750613bfe88613bf983613882565b61266f565b602088019750613c1688613c11836138a9565b61266f565b602088019750613c2e88613c29836138d0565b61266f565b602088019750613c4688613c41836138f7565b61266f565b6020880197506001830192505060208101905061393c565b5b60011561414a57815484821015613c8f57613c8288613c7d8361343e565b61266f565b6020880197506001820191505b84821015613cb657613ca988613ca483613465565b61266f565b6020880197506001820191505b84821015613cdd57613cd088613ccb8361348c565b61266f565b6020880197506001820191505b84821015613d0457613cf788613cf2836134b3565b61266f565b6020880197506001820191505b84821015613d2b57613d1e88613d19836134da565b61266f565b6020880197506001820191505b84821015613d5257613d4588613d4083613501565b61266f565b6020880197506001820191505b84821015613d7957613d6c88613d6783613528565b61266f565b6020880197506001820191505b84821015613da057613d9388613d8e8361354f565b61266f565b6020880197506001820191505b84821015613dc757613dba88613db583613576565b61266f565b6020880197506001820191505b84821015613dee57613de188613ddc8361359d565b61266f565b6020880197506001820191505b84821015613e1557613e0888613e03836135c4565b61266f565b6020880197506001820191505b84821015613e3c57613e2f88613e2a836135eb565b61266f565b6020880197506001820191505b84821015613e6357613e5688613e5183613612565b61266f565b6020880197506001820191505b84821015613e8a57613e7d88613e7883613639565b61266f565b6020880197506001820191505b84821015613eb157613ea488613e9f83613660565b61266f565b6020880197506001820191505b84821015613ed857613ecb88613ec683613687565b61266f565b6020880197506001820191505b84821015613eff57613ef288613eed836136ae565b61266f565b6020880197506001820191505b84821015613f2657613f1988613f14836136d5565b61266f565b6020880197506001820191505b84821015613f4d57613f4088613f3b836136fc565b61266f565b6020880197506001820191505b84821015613f7457613f6788613f6283613723565b61266f565b6020880197506001820191505b84821015613f9b57613f8e88613f898361374a565b61266f565b6020880197506001820191505b84821015613fc257613fb588613fb083613771565b61266f565b6020880197506001820191505b84821015613fe957613fdc88613fd783613798565b61266f565b6020880197506001820191505b848210156140105761400388613ffe836137bf565b61266f565b6020880197506001820191505b848210156140375761402a88614025836137e6565b61266f565b6020880197506001820191505b8482101561405e576140518861404c8361380d565b61266f565b6020880197506001820191505b84821015614085576140788861407383613834565b61266f565b6020880197506001820191505b848210156140ac5761409f8861409a8361385b565b61266f565b6020880197506001820191505b848210156140d3576140c6886140c183613882565b61266f565b6020880197506001820191505b848210156140fa576140ed886140e8836138a9565b61266f565b6020880197506001820191505b84821015614121576141148861410f836138d0565b61266f565b6020880197506001820191505b848210156141485761413b88614136836138f7565b61266f565b6020880197506001820191505b505b8694505050505092915050565b61416081612701565b82525050565b60006101208201905061417c600083018c612a09565b818103602083015261418e818b61339b565b905081810360408301526141a2818a613911565b90506141b16060830189614157565b6141be6080830188612c64565b6141cb60a0830187612c64565b6141d860c0830186612c64565b6141e560e08301856123be565b6141f36101008301846123be565b9a9950505050505050505050565b600081905092915050565b7f416363657373436f6e74726f6c3a206163636f756e7420000000000000000000600082015250565b6000614242601783614201565b915061424d8261420c565b601782019050919050565b600081519050919050565b60005b83811015614281578082015181840152602081019050614266565b83811115614290576000848401525b50505050565b60006142a182614258565b6142ab8185614201565b93506142bb818560208601614263565b80840191505092915050565b7f206973206d697373696e6720726f6c6520000000000000000000000000000000600082015250565b60006142fd601183614201565b9150614308826142c7565b601182019050919050565b600061431e82614235565b915061432a8285614296565b9150614335826142f0565b91506143418284614296565b91508190509392505050565b600061435882614258565b6143628185612b0f565b9350614372818560208601614263565b61437b8161282a565b840191505092915050565b600060208201905081810360008301526143a0818461434d565b905092915050565b60006143b382612475565b915060008214156143c7576143c6612dbb565b5b600182039050919050565b7f537472696e67733a20686578206c656e67746820696e73756666696369656e74600082015250565b6000614408602083612b0f565b9150614413826143d2565b602082019050919050565b60006020820190508181036000830152614437816143fb565b905091905056fea26469706673582212206c7aac142ac8a5b67795fdf4614f145c003f696aae6a6567841dda3a0e1480af64736f6c634300080a0033",
  "immutableReferences": {},
  "source": "// SPDX-License-Identifier: MIT\n\npragma solidity ^0.8.3;\n\nimport \"@openzeppelin/contracts/utils/Counters.sol\";\nimport \"@openzeppelin/contracts/security/ReentrancyGuard.sol\";\nimport \"@openzeppelin/contracts/token/ERC721/ERC721.sol\";\nimport \"@openzeppelin/contracts/access/AccessControl.sol\";\n\ncontract NFTMarket is ReentrancyGuard, AccessControl {\n    bytes32 public constant MINTER_ROLE = keccak256(\"MINTER_ROLE\");\n    using Counters for Counters.Counter;\n    Counters.Counter private _itemIds;\n    Counters.Counter private _itemsSold;\n\n    address payable owner;\n    address payable _pay;\n\n    constructor() {\n        owner = payable(msg.sender);\n        _setupRole(DEFAULT_ADMIN_ROLE, msg.sender);\n        _setupRole(MINTER_ROLE, msg.sender);\n        _pay = owner;\n    }\n\n    struct MarketItem {\n        uint itemId;\n        address nftContract;\n        uint256[] tokenIds;\n        bool[] sold;\n        address payable seller;\n        uint256 available;\n        uint256 price;\n        uint256 releaseTime;\n        bool locked;\n        bool cancelled;\n    }\n\n    event MarketItemChanged (\n        uint indexed itemId,\n        address nftContract,\n        uint256[] tokenIds,\n        bool[] sold,\n        address payable seller,\n        uint256 available,\n        uint256 price,\n        uint256 releaseTime,\n        bool locked,\n        bool cancelled\n    );\n\n    event MarketItemCreated (\n      uint indexed itemId,\n      uint256 timestamp\n    );\n    \n    event MarketItemCancelled (\n        uint indexed itemId,\n        uint256 timestamp\n    );\n\n    event MarketItemLocked (\n        uint indexed itemId,\n        uint256 timestamp\n    );\n\n    event MarketItemUnlocked (\n        uint indexed itemId,\n        uint256 timestamp\n    );\n\n    event MarketItemSold (\n        uint indexed itemId,\n        uint256 tokenId,\n        address nftContract,\n        uint256 timestamp,\n        address owner\n    );\n\n\n    mapping(uint256 => MarketItem) private idToMarketItem;\n\n    function updatePay(address payable pay) public {\n        require(hasRole(MINTER_ROLE, msg.sender), \"Caller is not a minter\");\n        _pay = pay;\n    }\n\n    function checkPay() public view returns (address) {\n        return _pay;\n    }\n\n    function emitChange(uint itemId) private {\n        emit MarketItemChanged (\n            idToMarketItem[itemId].itemId,\n            idToMarketItem[itemId].nftContract,\n            idToMarketItem[itemId].tokenIds,\n            idToMarketItem[itemId].sold,\n            idToMarketItem[itemId].seller,\n            idToMarketItem[itemId].available,\n            idToMarketItem[itemId].price,\n            idToMarketItem[itemId].releaseTime,\n            idToMarketItem[itemId].locked,\n            idToMarketItem[itemId].cancelled\n        );\n    }\n\n    function createMarketItem(address nftContract, uint256[] memory tokenIds, uint256 price, uint256 releaseTime) public payable  nonReentrant {\n        require(hasRole(MINTER_ROLE, msg.sender), \"Caller is not a minter\");\n        require(price > 0, \"Price must be at least 1 wei\");\n\n        _itemIds.increment();\n        uint256 itemId = _itemIds.current();\n        bool[] memory sold = new bool[](tokenIds.length);\n        for (uint i=0; i<tokenIds.length; i++) {\n            IERC721(nftContract).transferFrom(msg.sender, address(this), tokenIds[i]);\n            sold[i] = false;\n        }\n\n        idToMarketItem[itemId] =  MarketItem(\n            itemId,\n            nftContract,\n            tokenIds,\n            sold,\n            payable(msg.sender),\n            tokenIds.length,\n            price,\n            releaseTime,\n            false,\n            false\n        );\n\n        emitChange(itemId);\n\n        emit MarketItemCreated(\n            itemId,\n            block.timestamp\n        );\n\n    }\n\n\n    function createMarketSale(\n        address nftContract,\n        uint256[] memory itemIds,\n        uint256[] memory amounts\n        ) public payable nonReentrant {\n            require(itemIds.length == amounts.length, \"Invalid Amount\");\n            uint price = 0;\n            uint amount = 0;\n            for(uint i=0; i < itemIds.length; i++){\n                amount = amounts[i];\n                uint itemId = itemIds[i];\n                price = price + idToMarketItem[itemIds[i]].price*amount;\n                if(i == itemIds.length-1){\n                    require(msg.value == price, \"Please submit the asking price in order to complete the purchase\");\n                }\n                require(idToMarketItem[itemIds[i]].available >= amount, \"These many items don't exist\");\n                require(idToMarketItem[itemIds[i]].locked == false, \"Item is locked\");\n                require(idToMarketItem[itemIds[i]].cancelled == false, \"Item was cancelled\");\n                require(block.timestamp > idToMarketItem[itemIds[i]].releaseTime, \"Item not up for sale yet\");\n\n                for (uint j=0; j<idToMarketItem[itemIds[i]].tokenIds.length; j++) {\n                    if(idToMarketItem[itemIds[i]].sold[j]!=true){\n                        IERC721(nftContract).transferFrom(address(this), msg.sender, idToMarketItem[itemIds[i]].tokenIds[j]);\n                        idToMarketItem[itemIds[i]].sold[j] = true;\n                        amount = amount - 1;\n                        idToMarketItem[itemIds[i]].available = idToMarketItem[itemIds[i]].available - 1;\n                        if(amount==0){\n                            break;\n                        }\n\n                        emit MarketItemSold (\n                            itemId,\n                            idToMarketItem[itemIds[i]].tokenIds[j],\n                            idToMarketItem[itemIds[i]].nftContract,\n                            block.timestamp,\n                            msg.sender\n                        );\n                    }\n                }\n                \n                emitChange(itemId);\n            }\n        _pay.transfer(msg.value);\n        _itemsSold.increment();\n    }\n\n    function cancelItem(\n        uint256 itemId\n        ) public nonReentrant {\n        require(hasRole(MINTER_ROLE, msg.sender), \"Caller is not a minter\");\n        require(idToMarketItem[itemId].cancelled != true, \"Item is already cancelled\");\n        for (uint i=0; i<idToMarketItem[itemId].tokenIds.length; i++) {\n            if(idToMarketItem[itemId].sold[i]!=true){\n                IERC721(idToMarketItem[itemId].nftContract).transferFrom(address(this), msg.sender, idToMarketItem[itemId].tokenIds[i]);\n                idToMarketItem[itemId].sold[i] = true;\n            }\n        }\n        idToMarketItem[itemId].cancelled = true;\n\n        emitChange(itemId);\n\n        emit MarketItemCancelled(\n            itemId,\n            block.timestamp\n        );\n    }\n\n    function lockItem(\n        uint256 itemId\n        ) public nonReentrant {\n        require(hasRole(MINTER_ROLE, msg.sender), \"Caller is not a minter\");\n        require(idToMarketItem[itemId].locked != true, \"Item is already locked\");\n        idToMarketItem[itemId].locked = true;\n\n        emitChange(itemId);\n\n        emit MarketItemLocked(\n            itemId,\n            block.timestamp\n        );\n    }\n\n    function unLockItem(\n        uint256 itemId\n        ) public nonReentrant {\n        require(hasRole(MINTER_ROLE, msg.sender), \"Caller is not a minter\");\n        require(idToMarketItem[itemId].locked != false, \"Item is already unlocked\");\n        idToMarketItem[itemId].locked = false;\n\n        emitChange(itemId);\n\n        emit MarketItemUnlocked(\n            itemId,\n            block.timestamp\n        );\n    }\n\n    function getItem(uint itemId) public view returns (MarketItem memory){\n        return idToMarketItem[itemId];\n    }\n    \n}",
  "sourcePath": "/Users/shreyas/FashionVerse/frontend/contracts/Marketplace.sol",
  "compiler": {
    "name": "solc",
    "version": "0.8.10+commit.fc410830.Emscripten.clang"
  },
  "schemaVersion": "3.4.4",
  "updatedAt": "2022-02-20T09:58:40.824Z",
  "networkType": "ethereum",
  "devdoc": {
    "kind": "dev",
    "methods": {
      "getRoleAdmin(bytes32)": {
        "details": "Returns the admin role that controls `role`. See {grantRole} and {revokeRole}. To change a role's admin, use {_setRoleAdmin}."
      },
      "grantRole(bytes32,address)": {
        "details": "Grants `role` to `account`. If `account` had not been already granted `role`, emits a {RoleGranted} event. Requirements: - the caller must have ``role``'s admin role."
      },
      "hasRole(bytes32,address)": {
        "details": "Returns `true` if `account` has been granted `role`."
      },
      "renounceRole(bytes32,address)": {
        "details": "Revokes `role` from the calling account. Roles are often managed via {grantRole} and {revokeRole}: this function's purpose is to provide a mechanism for accounts to lose their privileges if they are compromised (such as when a trusted device is misplaced). If the calling account had been revoked `role`, emits a {RoleRevoked} event. Requirements: - the caller must be `account`."
      },
      "revokeRole(bytes32,address)": {
        "details": "Revokes `role` from `account`. If `account` had been granted `role`, emits a {RoleRevoked} event. Requirements: - the caller must have ``role``'s admin role."
      },
      "supportsInterface(bytes4)": {
        "details": "See {IERC165-supportsInterface}."
      }
    },
    "version": 1
  },
  "userdoc": {
    "kind": "user",
    "methods": {},
    "version": 1
  }
}